{
  "_format": "hh-sol-artifact-1",
  "contractName": "BoomieRamp",
  "sourceName": "contracts/BoomieRamp.sol",
  "abi": [
    {
      "inputs": [
        {
          "internalType": "address",
          "name": "_owner",
          "type": "address"
        },
        {
          "internalType": "contract IERC20",
          "name": "_gho",
          "type": "address"
        },
        {
          "internalType": "uint256",
          "name": "_minDepositAmount",
          "type": "uint256"
        },
        {
          "internalType": "uint256",
          "name": "_maxOnRampAmount",
          "type": "uint256"
        },
        {
          "internalType": "uint256",
          "name": "_intentExpirationPeriod",
          "type": "uint256"
        },
        {
          "internalType": "uint256",
          "name": "_onRampCooldownPeriod",
          "type": "uint256"
        },
        {
          "internalType": "uint256",
          "name": "_sustainabilityFee",
          "type": "uint256"
        },
        {
          "internalType": "address",
          "name": "_sustainabilityFeeRecipient",
          "type": "address"
        }
      ],
      "stateMutability": "nonpayable",
      "type": "constructor"
    },
    {
      "anonymous": false,
      "inputs": [
        {
          "indexed": true,
          "internalType": "address",
          "name": "accountOwner",
          "type": "address"
        },
        {
          "indexed": true,
          "internalType": "bytes32",
          "name": "venmoIdHash",
          "type": "bytes32"
        }
      ],
      "name": "AccountRegistered",
      "type": "event"
    },
    {
      "anonymous": false,
      "inputs": [
        {
          "indexed": false,
          "internalType": "uint256",
          "name": "depositId",
          "type": "uint256"
        },
        {
          "indexed": false,
          "internalType": "address",
          "name": "sellerAccount",
          "type": "address"
        }
      ],
      "name": "DepositClosed",
      "type": "event"
    },
    {
      "anonymous": false,
      "inputs": [
        {
          "indexed": true,
          "internalType": "uint256",
          "name": "depositId",
          "type": "uint256"
        },
        {
          "indexed": true,
          "internalType": "address",
          "name": "sellerAccount",
          "type": "address"
        },
        {
          "indexed": false,
          "internalType": "uint256",
          "name": "amount",
          "type": "uint256"
        },
        {
          "indexed": false,
          "internalType": "uint256",
          "name": "conversionRate",
          "type": "uint256"
        }
      ],
      "name": "DepositReceived",
      "type": "event"
    },
    {
      "anonymous": false,
      "inputs": [
        {
          "indexed": true,
          "internalType": "uint256",
          "name": "depositId",
          "type": "uint256"
        },
        {
          "indexed": true,
          "internalType": "address",
          "name": "sellerAccount",
          "type": "address"
        },
        {
          "indexed": false,
          "internalType": "uint256",
          "name": "amount",
          "type": "uint256"
        }
      ],
      "name": "DepositWithdrawn",
      "type": "event"
    },
    {
      "anonymous": false,
      "inputs": [
        {
          "indexed": false,
          "internalType": "uint256",
          "name": "intentExpirationPeriod",
          "type": "uint256"
        }
      ],
      "name": "IntentExpirationPeriodSet",
      "type": "event"
    },
    {
      "anonymous": false,
      "inputs": [
        {
          "indexed": true,
          "internalType": "bytes32",
          "name": "intentHash",
          "type": "bytes32"
        },
        {
          "indexed": true,
          "internalType": "uint256",
          "name": "depositId",
          "type": "uint256"
        },
        {
          "indexed": true,
          "internalType": "address",
          "name": "buyerAccount",
          "type": "address"
        },
        {
          "indexed": false,
          "internalType": "address",
          "name": "to",
          "type": "address"
        },
        {
          "indexed": false,
          "internalType": "uint256",
          "name": "amount",
          "type": "uint256"
        },
        {
          "indexed": false,
          "internalType": "uint256",
          "name": "feeAmount",
          "type": "uint256"
        }
      ],
      "name": "IntentFulfilled",
      "type": "event"
    },
    {
      "anonymous": false,
      "inputs": [
        {
          "indexed": true,
          "internalType": "bytes32",
          "name": "intentHash",
          "type": "bytes32"
        },
        {
          "indexed": true,
          "internalType": "uint256",
          "name": "depositId",
          "type": "uint256"
        }
      ],
      "name": "IntentPruned",
      "type": "event"
    },
    {
      "anonymous": false,
      "inputs": [
        {
          "indexed": true,
          "internalType": "bytes32",
          "name": "intentHash",
          "type": "bytes32"
        },
        {
          "indexed": true,
          "internalType": "uint256",
          "name": "depositId",
          "type": "uint256"
        },
        {
          "indexed": true,
          "internalType": "address",
          "name": "buyerAccount",
          "type": "address"
        },
        {
          "indexed": false,
          "internalType": "address",
          "name": "to",
          "type": "address"
        },
        {
          "indexed": false,
          "internalType": "uint256",
          "name": "amount",
          "type": "uint256"
        },
        {
          "indexed": false,
          "internalType": "uint256",
          "name": "timestamp",
          "type": "uint256"
        }
      ],
      "name": "IntentSignaled",
      "type": "event"
    },
    {
      "anonymous": false,
      "inputs": [
        {
          "indexed": false,
          "internalType": "uint256",
          "name": "maxOnRampAmount",
          "type": "uint256"
        }
      ],
      "name": "MaxOnRampAmountSet",
      "type": "event"
    },
    {
      "anonymous": false,
      "inputs": [
        {
          "indexed": false,
          "internalType": "uint256",
          "name": "minDepositAmount",
          "type": "uint256"
        }
      ],
      "name": "MinDepositAmountSet",
      "type": "event"
    },
    {
      "anonymous": false,
      "inputs": [
        {
          "indexed": false,
          "internalType": "uint256",
          "name": "onRampCooldownPeriod",
          "type": "uint256"
        }
      ],
      "name": "OnRampCooldownPeriodSet",
      "type": "event"
    },
    {
      "anonymous": false,
      "inputs": [
        {
          "indexed": true,
          "internalType": "address",
          "name": "previousOwner",
          "type": "address"
        },
        {
          "indexed": true,
          "internalType": "address",
          "name": "newOwner",
          "type": "address"
        }
      ],
      "name": "OwnershipTransferred",
      "type": "event"
    },
    {
      "anonymous": false,
      "inputs": [
        {
          "indexed": false,
          "internalType": "address",
          "name": "feeRecipient",
          "type": "address"
        }
      ],
      "name": "SustainabilityFeeRecipientUpdated",
      "type": "event"
    },
    {
      "anonymous": false,
      "inputs": [
        {
          "indexed": false,
          "internalType": "uint256",
          "name": "fee",
          "type": "uint256"
        }
      ],
      "name": "SustainabilityFeeUpdated",
      "type": "event"
    },
    {
      "anonymous": false,
      "inputs": [
        {
          "indexed": false,
          "internalType": "bytes32",
          "name": "listOwner",
          "type": "bytes32"
        },
        {
          "indexed": false,
          "internalType": "bytes32",
          "name": "deniedUser",
          "type": "bytes32"
        }
      ],
      "name": "UserAddedToDenylist",
      "type": "event"
    },
    {
      "anonymous": false,
      "inputs": [
        {
          "indexed": false,
          "internalType": "bytes32",
          "name": "listOwner",
          "type": "bytes32"
        },
        {
          "indexed": false,
          "internalType": "bytes32",
          "name": "approvedUser",
          "type": "bytes32"
        }
      ],
      "name": "UserRemovedFromDenylist",
      "type": "event"
    },
    {
      "inputs": [
        {
          "internalType": "bytes32",
          "name": "_deniedUser",
          "type": "bytes32"
        }
      ],
      "name": "addAccountToDenylist",
      "outputs": [],
      "stateMutability": "nonpayable",
      "type": "function"
    },
    {
      "inputs": [
        {
          "internalType": "uint256",
          "name": "",
          "type": "uint256"
        }
      ],
      "name": "allDeposits",
      "outputs": [
        {
          "internalType": "uint256",
          "name": "depositId",
          "type": "uint256"
        },
        {
          "internalType": "address",
          "name": "depositor",
          "type": "address"
        },
        {
          "internalType": "uint256",
          "name": "depositAmount",
          "type": "uint256"
        },
        {
          "internalType": "uint256",
          "name": "remainingDeposits",
          "type": "uint256"
        },
        {
          "internalType": "uint256",
          "name": "outstandingIntentAmount",
          "type": "uint256"
        },
        {
          "internalType": "uint256",
          "name": "conversionRate",
          "type": "uint256"
        }
      ],
      "stateMutability": "view",
      "type": "function"
    },
    {
      "inputs": [
        {
          "internalType": "bytes32",
          "name": "_intentHash",
          "type": "bytes32"
        }
      ],
      "name": "cancelIntent",
      "outputs": [],
      "stateMutability": "nonpayable",
      "type": "function"
    },
    {
      "inputs": [],
      "name": "depositCounter",
      "outputs": [
        {
          "internalType": "uint256",
          "name": "",
          "type": "uint256"
        }
      ],
      "stateMutability": "view",
      "type": "function"
    },
    {
      "inputs": [
        {
          "internalType": "uint256",
          "name": "",
          "type": "uint256"
        }
      ],
      "name": "deposits",
      "outputs": [
        {
          "internalType": "uint256",
          "name": "depositId",
          "type": "uint256"
        },
        {
          "internalType": "address",
          "name": "depositor",
          "type": "address"
        },
        {
          "internalType": "uint256",
          "name": "depositAmount",
          "type": "uint256"
        },
        {
          "internalType": "uint256",
          "name": "remainingDeposits",
          "type": "uint256"
        },
        {
          "internalType": "uint256",
          "name": "outstandingIntentAmount",
          "type": "uint256"
        },
        {
          "internalType": "uint256",
          "name": "conversionRate",
          "type": "uint256"
        }
      ],
      "stateMutability": "view",
      "type": "function"
    },
    {
      "inputs": [
        {
          "internalType": "address",
          "name": "_account",
          "type": "address"
        }
      ],
      "name": "getAccountDeposits",
      "outputs": [
        {
          "components": [
            {
              "internalType": "uint256",
              "name": "depositId",
              "type": "uint256"
            },
            {
              "internalType": "bytes32",
              "name": "depositorIdHash",
              "type": "bytes32"
            },
            {
              "components": [
                {
                  "internalType": "uint256",
                  "name": "depositId",
                  "type": "uint256"
                },
                {
                  "internalType": "address",
                  "name": "depositor",
                  "type": "address"
                },
                {
                  "internalType": "uint256",
                  "name": "depositAmount",
                  "type": "uint256"
                },
                {
                  "internalType": "uint256",
                  "name": "remainingDeposits",
                  "type": "uint256"
                },
                {
                  "internalType": "uint256",
                  "name": "outstandingIntentAmount",
                  "type": "uint256"
                },
                {
                  "internalType": "uint256",
                  "name": "conversionRate",
                  "type": "uint256"
                },
                {
                  "internalType": "bytes32[]",
                  "name": "intentHashes",
                  "type": "bytes32[]"
                }
              ],
              "internalType": "struct BoomieRamp.Deposit",
              "name": "deposit",
              "type": "tuple"
            },
            {
              "internalType": "uint256",
              "name": "availableLiquidity",
              "type": "uint256"
            }
          ],
          "internalType": "struct BoomieRamp.DepositWithAvailableLiquidity[]",
          "name": "accountDeposits",
          "type": "tuple[]"
        }
      ],
      "stateMutability": "view",
      "type": "function"
    },
    {
      "inputs": [
        {
          "internalType": "address",
          "name": "_account",
          "type": "address"
        }
      ],
      "name": "getAccountInfo",
      "outputs": [
        {
          "components": [
            {
              "internalType": "bytes32",
              "name": "venmoIdHash",
              "type": "bytes32"
            },
            {
              "internalType": "uint256[]",
              "name": "deposits",
              "type": "uint256[]"
            }
          ],
          "internalType": "struct BoomieRamp.AccountInfo",
          "name": "",
          "type": "tuple"
        }
      ],
      "stateMutability": "view",
      "type": "function"
    },
    {
      "inputs": [
        {
          "internalType": "address",
          "name": "_account",
          "type": "address"
        }
      ],
      "name": "getAccountVenmoIdHash",
      "outputs": [
        {
          "internalType": "bytes32",
          "name": "",
          "type": "bytes32"
        }
      ],
      "stateMutability": "view",
      "type": "function"
    },
    {
      "inputs": [
        {
          "internalType": "address",
          "name": "_account",
          "type": "address"
        }
      ],
      "name": "getDeniedUsers",
      "outputs": [
        {
          "internalType": "bytes32[]",
          "name": "",
          "type": "bytes32[]"
        }
      ],
      "stateMutability": "view",
      "type": "function"
    },
    {
      "inputs": [
        {
          "internalType": "uint256",
          "name": "_depositId",
          "type": "uint256"
        }
      ],
      "name": "getDeposit",
      "outputs": [
        {
          "components": [
            {
              "internalType": "uint256",
              "name": "depositId",
              "type": "uint256"
            },
            {
              "internalType": "address",
              "name": "depositor",
              "type": "address"
            },
            {
              "internalType": "uint256",
              "name": "depositAmount",
              "type": "uint256"
            },
            {
              "internalType": "uint256",
              "name": "remainingDeposits",
              "type": "uint256"
            },
            {
              "internalType": "uint256",
              "name": "outstandingIntentAmount",
              "type": "uint256"
            },
            {
              "internalType": "uint256",
              "name": "conversionRate",
              "type": "uint256"
            },
            {
              "internalType": "bytes32[]",
              "name": "intentHashes",
              "type": "bytes32[]"
            }
          ],
          "internalType": "struct BoomieRamp.Deposit",
          "name": "",
          "type": "tuple"
        }
      ],
      "stateMutability": "view",
      "type": "function"
    },
    {
      "inputs": [
        {
          "internalType": "uint256[]",
          "name": "_depositIds",
          "type": "uint256[]"
        }
      ],
      "name": "getDepositFromIds",
      "outputs": [
        {
          "components": [
            {
              "internalType": "uint256",
              "name": "depositId",
              "type": "uint256"
            },
            {
              "internalType": "bytes32",
              "name": "depositorIdHash",
              "type": "bytes32"
            },
            {
              "components": [
                {
                  "internalType": "uint256",
                  "name": "depositId",
                  "type": "uint256"
                },
                {
                  "internalType": "address",
                  "name": "depositor",
                  "type": "address"
                },
                {
                  "internalType": "uint256",
                  "name": "depositAmount",
                  "type": "uint256"
                },
                {
                  "internalType": "uint256",
                  "name": "remainingDeposits",
                  "type": "uint256"
                },
                {
                  "internalType": "uint256",
                  "name": "outstandingIntentAmount",
                  "type": "uint256"
                },
                {
                  "internalType": "uint256",
                  "name": "conversionRate",
                  "type": "uint256"
                },
                {
                  "internalType": "bytes32[]",
                  "name": "intentHashes",
                  "type": "bytes32[]"
                }
              ],
              "internalType": "struct BoomieRamp.Deposit",
              "name": "deposit",
              "type": "tuple"
            },
            {
              "internalType": "uint256",
              "name": "availableLiquidity",
              "type": "uint256"
            }
          ],
          "internalType": "struct BoomieRamp.DepositWithAvailableLiquidity[]",
          "name": "depositArray",
          "type": "tuple[]"
        }
      ],
      "stateMutability": "view",
      "type": "function"
    },
    {
      "inputs": [],
      "name": "getDepositsWithMinimumBalance",
      "outputs": [
        {
          "components": [
            {
              "internalType": "uint256",
              "name": "depositId",
              "type": "uint256"
            },
            {
              "internalType": "address",
              "name": "depositor",
              "type": "address"
            },
            {
              "internalType": "uint256",
              "name": "depositAmount",
              "type": "uint256"
            },
            {
              "internalType": "uint256",
              "name": "remainingDeposits",
              "type": "uint256"
            },
            {
              "internalType": "uint256",
              "name": "outstandingIntentAmount",
              "type": "uint256"
            },
            {
              "internalType": "uint256",
              "name": "conversionRate",
              "type": "uint256"
            },
            {
              "internalType": "bytes32[]",
              "name": "intentHashes",
              "type": "bytes32[]"
            }
          ],
          "internalType": "struct BoomieRamp.Deposit[]",
          "name": "",
          "type": "tuple[]"
        }
      ],
      "stateMutability": "view",
      "type": "function"
    },
    {
      "inputs": [
        {
          "internalType": "bytes32[]",
          "name": "_intentHashes",
          "type": "bytes32[]"
        }
      ],
      "name": "getIntentsWithOnRamperId",
      "outputs": [
        {
          "components": [
            {
              "internalType": "bytes32",
              "name": "intentHash",
              "type": "bytes32"
            },
            {
              "components": [
                {
                  "internalType": "address",
                  "name": "buyerAccount",
                  "type": "address"
                },
                {
                  "internalType": "address",
                  "name": "to",
                  "type": "address"
                },
                {
                  "internalType": "uint256",
                  "name": "deposit",
                  "type": "uint256"
                },
                {
                  "internalType": "uint256",
                  "name": "amount",
                  "type": "uint256"
                },
                {
                  "internalType": "uint256",
                  "name": "intentTimestamp",
                  "type": "uint256"
                }
              ],
              "internalType": "struct BoomieRamp.Intent",
              "name": "intent",
              "type": "tuple"
            },
            {
              "internalType": "bytes32",
              "name": "onRamperIdHash",
              "type": "bytes32"
            }
          ],
          "internalType": "struct BoomieRamp.IntentWithOnRamperId[]",
          "name": "",
          "type": "tuple[]"
        }
      ],
      "stateMutability": "view",
      "type": "function"
    },
    {
      "inputs": [
        {
          "internalType": "address",
          "name": "_account",
          "type": "address"
        }
      ],
      "name": "getLastOnRampTimestamp",
      "outputs": [
        {
          "internalType": "uint256",
          "name": "",
          "type": "uint256"
        }
      ],
      "stateMutability": "view",
      "type": "function"
    },
    {
      "inputs": [
        {
          "internalType": "address",
          "name": "_account",
          "type": "address"
        }
      ],
      "name": "getVenmoIdCurrentIntentHash",
      "outputs": [
        {
          "internalType": "bytes32",
          "name": "",
          "type": "bytes32"
        }
      ],
      "stateMutability": "view",
      "type": "function"
    },
    {
      "inputs": [],
      "name": "gho",
      "outputs": [
        {
          "internalType": "contract IERC20",
          "name": "",
          "type": "address"
        }
      ],
      "stateMutability": "view",
      "type": "function"
    },
    {
      "inputs": [],
      "name": "initialize",
      "outputs": [],
      "stateMutability": "nonpayable",
      "type": "function"
    },
    {
      "inputs": [],
      "name": "intentExpirationPeriod",
      "outputs": [
        {
          "internalType": "uint256",
          "name": "",
          "type": "uint256"
        }
      ],
      "stateMutability": "view",
      "type": "function"
    },
    {
      "inputs": [
        {
          "internalType": "bytes32",
          "name": "",
          "type": "bytes32"
        }
      ],
      "name": "intents",
      "outputs": [
        {
          "internalType": "address",
          "name": "buyerAccount",
          "type": "address"
        },
        {
          "internalType": "address",
          "name": "to",
          "type": "address"
        },
        {
          "internalType": "uint256",
          "name": "deposit",
          "type": "uint256"
        },
        {
          "internalType": "uint256",
          "name": "amount",
          "type": "uint256"
        },
        {
          "internalType": "uint256",
          "name": "intentTimestamp",
          "type": "uint256"
        }
      ],
      "stateMutability": "view",
      "type": "function"
    },
    {
      "inputs": [
        {
          "internalType": "address",
          "name": "_account",
          "type": "address"
        },
        {
          "internalType": "bytes32",
          "name": "_deniedUser",
          "type": "bytes32"
        }
      ],
      "name": "isDeniedUser",
      "outputs": [
        {
          "internalType": "bool",
          "name": "",
          "type": "bool"
        }
      ],
      "stateMutability": "view",
      "type": "function"
    },
    {
      "inputs": [],
      "name": "isInitialized",
      "outputs": [
        {
          "internalType": "bool",
          "name": "",
          "type": "bool"
        }
      ],
      "stateMutability": "view",
      "type": "function"
    },
    {
      "inputs": [],
      "name": "maxOnRampAmount",
      "outputs": [
        {
          "internalType": "uint256",
          "name": "",
          "type": "uint256"
        }
      ],
      "stateMutability": "view",
      "type": "function"
    },
    {
      "inputs": [],
      "name": "minDepositAmount",
      "outputs": [
        {
          "internalType": "uint256",
          "name": "",
          "type": "uint256"
        }
      ],
      "stateMutability": "view",
      "type": "function"
    },
    {
      "inputs": [
        {
          "internalType": "uint256",
          "name": "_depositAmount",
          "type": "uint256"
        },
        {
          "internalType": "uint256",
          "name": "_receiveAmount",
          "type": "uint256"
        }
      ],
      "name": "offRamp",
      "outputs": [],
      "stateMutability": "nonpayable",
      "type": "function"
    },
    {
      "inputs": [
        {
          "internalType": "bytes32",
          "name": "_intentHash",
          "type": "bytes32"
        }
      ],
      "name": "onRamp",
      "outputs": [],
      "stateMutability": "nonpayable",
      "type": "function"
    },
    {
      "inputs": [],
      "name": "onRampCooldownPeriod",
      "outputs": [
        {
          "internalType": "uint256",
          "name": "",
          "type": "uint256"
        }
      ],
      "stateMutability": "view",
      "type": "function"
    },
    {
      "inputs": [],
      "name": "owner",
      "outputs": [
        {
          "internalType": "address",
          "name": "",
          "type": "address"
        }
      ],
      "stateMutability": "view",
      "type": "function"
    },
    {
      "inputs": [],
      "name": "register",
      "outputs": [],
      "stateMutability": "nonpayable",
      "type": "function"
    },
    {
      "inputs": [
        {
          "internalType": "bytes32",
          "name": "_intentHash",
          "type": "bytes32"
        }
      ],
      "name": "releaseFundsToOnramper",
      "outputs": [],
      "stateMutability": "nonpayable",
      "type": "function"
    },
    {
      "inputs": [
        {
          "internalType": "bytes32",
          "name": "_approvedUser",
          "type": "bytes32"
        }
      ],
      "name": "removeAccountFromDenylist",
      "outputs": [],
      "stateMutability": "nonpayable",
      "type": "function"
    },
    {
      "inputs": [],
      "name": "renounceOwnership",
      "outputs": [],
      "stateMutability": "nonpayable",
      "type": "function"
    },
    {
      "inputs": [
        {
          "internalType": "uint256",
          "name": "_intentExpirationPeriod",
          "type": "uint256"
        }
      ],
      "name": "setIntentExpirationPeriod",
      "outputs": [],
      "stateMutability": "nonpayable",
      "type": "function"
    },
    {
      "inputs": [
        {
          "internalType": "uint256",
          "name": "_maxOnRampAmount",
          "type": "uint256"
        }
      ],
      "name": "setMaxOnRampAmount",
      "outputs": [],
      "stateMutability": "nonpayable",
      "type": "function"
    },
    {
      "inputs": [
        {
          "internalType": "uint256",
          "name": "_minDepositAmount",
          "type": "uint256"
        }
      ],
      "name": "setMinDepositAmount",
      "outputs": [],
      "stateMutability": "nonpayable",
      "type": "function"
    },
    {
      "inputs": [
        {
          "internalType": "uint256",
          "name": "_onRampCooldownPeriod",
          "type": "uint256"
        }
      ],
      "name": "setOnRampCooldownPeriod",
      "outputs": [],
      "stateMutability": "nonpayable",
      "type": "function"
    },
    {
      "inputs": [
        {
          "internalType": "uint256",
          "name": "_fee",
          "type": "uint256"
        }
      ],
      "name": "setSustainabilityFee",
      "outputs": [],
      "stateMutability": "nonpayable",
      "type": "function"
    },
    {
      "inputs": [
        {
          "internalType": "address",
          "name": "_feeRecipient",
          "type": "address"
        }
      ],
      "name": "setSustainabilityFeeRecipient",
      "outputs": [],
      "stateMutability": "nonpayable",
      "type": "function"
    },
    {
      "inputs": [
        {
          "internalType": "uint256",
          "name": "_depositId",
          "type": "uint256"
        },
        {
          "internalType": "uint256",
          "name": "_amount",
          "type": "uint256"
        },
        {
          "internalType": "address",
          "name": "_to",
          "type": "address"
        }
      ],
      "name": "signalIntent",
      "outputs": [],
      "stateMutability": "nonpayable",
      "type": "function"
    },
    {
      "inputs": [],
      "name": "sustainabilityFee",
      "outputs": [
        {
          "internalType": "uint256",
          "name": "",
          "type": "uint256"
        }
      ],
      "stateMutability": "view",
      "type": "function"
    },
    {
      "inputs": [],
      "name": "sustainabilityFeeRecipient",
      "outputs": [
        {
          "internalType": "address",
          "name": "",
          "type": "address"
        }
      ],
      "stateMutability": "view",
      "type": "function"
    },
    {
      "inputs": [
        {
          "internalType": "address",
          "name": "newOwner",
          "type": "address"
        }
      ],
      "name": "transferOwnership",
      "outputs": [],
      "stateMutability": "nonpayable",
      "type": "function"
    },
    {
      "inputs": [
        {
          "internalType": "uint256[]",
          "name": "_depositIds",
          "type": "uint256[]"
        }
      ],
      "name": "withdrawDeposit",
      "outputs": [],
      "stateMutability": "nonpayable",
      "type": "function"
    },
    {
      "stateMutability": "payable",
      "type": "receive"
    }
  ],
  "bytecode": "0x60a06040523480156200001157600080fd5b5060405162003c0d38038062003c0d8339810160408190526200003491620001f2565b6200003f33620000ab565b6001600160a01b0380881660805260058790556006869055600885905560078490556009839055600a80549183166001600160a01b03199092169190911790556000805460ff60a01b1916600160a01b1790556200009d88620000fb565b505050505050505062000278565b600080546001600160a01b038381166001600160a01b0319831681178455604051919092169283917f8be0079c531659141344cd1fd0a4f28419497f9722a3daafe3b4186f6b6457e09190a35050565b620001056200017e565b6001600160a01b038116620001705760405162461bcd60e51b815260206004820152602660248201527f4f776e61626c653a206e6577206f776e657220697320746865207a65726f206160448201526564647265737360d01b60648201526084015b60405180910390fd5b6200017b81620000ab565b50565b6000546001600160a01b03163314620001da5760405162461bcd60e51b815260206004820181905260248201527f4f776e61626c653a2063616c6c6572206973206e6f7420746865206f776e6572604482015260640162000167565b565b6001600160a01b03811681146200017b57600080fd5b600080600080600080600080610100898b0312156200021057600080fd5b88516200021d81620001dc565b60208a01519098506200023081620001dc565b8097505060408901519550606089015194506080890151935060a0890151925060c0890151915060e08901516200026781620001dc565b809150509295985092959890939650565b60805161395d620002b060003960008181610794015281816116e901528181611e6d01528181612df90152612ea8015261395d6000f3fe6080604052600436106102555760003560e01c80637b510fe811610139578063b3fa4c01116100b6578063e279d9641161007a578063e279d964146107f6578063e77176c41461080c578063ecb3dc881461082c578063ecd618f014610842578063f2fde38b1461086f578063fbf15b1f1461088f57600080fd5b8063b3fa4c0114610742578063cc181c2e14610762578063d1af1ca914610782578063d55f960d146107b6578063d9478d20146107d657600080fd5b80639087beff116100fd5780639087beff1461062d5780639b357b5a1461064d5780639f9fb9681461066d578063a1a954b71461069a578063b02c43d0146106b057600080fd5b80637b510fe81461050f5780638129fc1c1461053c57806381d07e89146105515780638da5cb5b146105715780639021578a146105a357600080fd5b80633d480aff116101d25780635dd76515116101965780635dd7651514610464578063645006ca1461048457806366ec84191461049a57806371134762146104ba578063715018a6146104da57806371a28f69146104ef57600080fd5b80633d480aff146103b457806342987349146103d45780634595bba0146103f4578063495223e7146104215780635081d9521461043757600080fd5b80632a80cda3116102195780632a80cda3146103015780632c463bf914610321578063317dcc9614610343578063392e53cd146103635780633adba28a1461039457600080fd5b80630f1ef98c14610261578063123a11e414610294578063148172da146102b45780631aa3a008146102d6578063238c8494146102eb57600080fd5b3661025c57005b600080fd5b34801561026d57600080fd5b5061028161027c366004613392565b6108af565b6040519081526020015b60405180910390f35b3480156102a057600080fd5b506102816102af366004613392565b6108d7565b3480156102c057600080fd5b506102d46102cf3660046133b4565b6108fd565b005b3480156102e257600080fd5b506102d46109fe565b3480156102f757600080fd5b5061028160095481565b34801561030d57600080fd5b506102d461031c3660046133b4565b610aa7565b34801561032d57600080fd5b50610336610b3b565b60405161028b919061345f565b34801561034f57600080fd5b506102d461035e3660046133b4565b610d56565b34801561036f57600080fd5b5060005461038490600160a01b900460ff1681565b604051901515815260200161028b565b3480156103a057600080fd5b506102d46103af3660046134c1565b610d93565b3480156103c057600080fd5b506102d46103cf3660046134f6565b611303565b3480156103e057600080fd5b506102d46103ef3660046133b4565b6117a3565b34801561040057600080fd5b5061041461040f366004613392565b611844565b60405161028b9190613518565b34801561042d57600080fd5b5061028160075481565b34801561044357600080fd5b50610457610452366004613392565b6118bd565b60405161028b919061355c565b34801561047057600080fd5b506102d461047f3660046133b4565b611add565b34801561049057600080fd5b5061028160055481565b3480156104a657600080fd5b506102d46104b53660046133b4565b611b7c565b3480156104c657600080fd5b506102d46104d53660046135fe565b611ce9565b3480156104e657600080fd5b506102d4611ee2565b3480156104fb57600080fd5b5061045761050a3660046135fe565b611ef6565b34801561051b57600080fd5b5061052f61052a366004613392565b6120ae565b60405161028b91906136bc565b34801561054857600080fd5b506102d461214d565b34801561055d57600080fd5b506102d461056c3660046133b4565b6121ba565b34801561057d57600080fd5b506000546001600160a01b03165b6040516001600160a01b03909116815260200161028b565b3480156105af57600080fd5b506105fa6105be3660046133b4565b6004602081905260009182526040909120805460018201546002830154600384015493909401546001600160a01b039283169492909116929085565b604080516001600160a01b039687168152959094166020860152928401919091526060830152608082015260a00161028b565b34801561063957600080fd5b506102d46106483660046133b4565b61226c565b34801561065957600080fd5b506102d46106683660046133b4565b612303565b34801561067957600080fd5b5061068d6106883660046133b4565b6123e1565b60405161028b9190613709565b3480156106a657600080fd5b5061028160085481565b3480156106bc57600080fd5b5061070d6106cb3660046133b4565b600360208190526000918252604090912080546001820154600283015493830154600484015460059094015492946001600160a01b0390921693919290919086565b604080519687526001600160a01b039095166020870152938501929092526060840152608083015260a082015260c00161028b565b34801561074e57600080fd5b506102d461075d366004613392565b61249c565b34801561076e57600080fd5b5061028161077d366004613392565b612554565b34801561078e57600080fd5b5061058b7f000000000000000000000000000000000000000000000000000000000000000081565b3480156107c257600080fd5b506102d46107d13660046133b4565b61256f565b3480156107e257600080fd5b50600a5461058b906001600160a01b031681565b34801561080257600080fd5b5061028160065481565b34801561081857600080fd5b5061070d6108273660046133b4565b6126c8565b34801561083857600080fd5b50610281600c5481565b34801561084e57600080fd5b5061086261085d36600461371c565b612718565b60405161028b9190613791565b34801561087b57600080fd5b506102d461088a366004613392565b6128aa565b34801561089b57600080fd5b506103846108aa366004613821565b612923565b6000600160006108be84612554565b8152602001908152602001600020600101549050919050565b6000600160006108e684612554565b815260208101919091526040016000205492915050565b600061090833612554565b600081815260016020908152604080832086845260030190915290205490915060ff161561097d5760405162461bcd60e51b815260206004820152601860248201527f5573657220616c7265616479206f6e2064656e796c697374000000000000000060448201526064015b60405180910390fd5b6000818152600160208181526040808420868552600381018352818520805460ff191685179055838352600201805493840181558452922001839055517f976c693d56f27ba17d902bda80c4fa0416b773fbf268bcb0ee71689234d769ee906109f29083908590918252602082015260400190565b60405180910390a15050565b6000610a0933612554565b14610a665760405162461bcd60e51b815260206004820152602760248201527f4163636f756e7420616c7265616479206173736f6369617465642077697468206044820152661d995b9b5bd25960ca1b6064820152608401610974565b33600081815260026020526040808220839055518291829182917f672144042732f7b1cdbf0772464ae545aedd7f41d38b8487dafd9085496a5d5191a35050565b610aaf61295e565b80600003610aff5760405162461bcd60e51b815260206004820152601e60248201527f4d696e696d756d206465706f7369742063616e6e6f74206265207a65726f00006044820152606401610974565b60058190556040518181527fbdde72a6d8d8b42770c9899945ccdce09d0c5c794d3326cdb2d2cca61b12a9fc906020015b60405180910390a150565b60606000805b600b54811015610ba857610b5e670de0b6b3a76400006019613861565b600b8281548110610b7157610b71613878565b90600052602060002090600702016003015410610b965781610b928161388e565b9250505b80610ba08161388e565b915050610b41565b5060008167ffffffffffffffff811115610bc457610bc46135e8565b604051908082528060200260200182016040528015610bfd57816020015b610bea61324a565b815260200190600190039081610be25790505b5090506000805b600b54811015610d4d57610c21670de0b6b3a76400006019613861565b600b8281548110610c3457610c34613878565b90600052602060002090600702016003015410610d3b57600b8181548110610c5e57610c5e613878565b60009182526020918290206040805160e08101825260079093029091018054835260018101546001600160a01b0316838501526002810154838301526003810154606084015260048101546080840152600581015460a08401526006810180548351818702810187019094528084529394919360c086019392830182828015610d0657602002820191906000526020600020905b815481526020019060010190808311610cf2575b505050505081525050838381518110610d2157610d21613878565b60200260200101819052508180610d379061388e565b9250505b80610d458161388e565b915050610c04565b50909392505050565b610d5e61295e565b60078190556040518181527f88397975d177ce5e18abf3a5fdb8de773e80673d85eeb54f48cfaf688b3d2c3e90602001610b30565b6000610d9e33612554565b6000858152600360205260408120600181015492935091610dc7906001600160a01b0316612554565b600081815260016020908152604080832087845260030190915290205490915060ff1615610e375760405162461bcd60e51b815260206004820181905260248201527f4f6e72616d706572206f6e206465706f7369746f7227732064656e796c6973746044820152606401610974565b600754600084815260016020819052604090912001544291610e58916138a7565b1115610eb25760405162461bcd60e51b8152602060048201526024808201527f4f6e2072616d7020636f6f6c20646f776e20706572696f64206e6f7420656c616044820152631c1cd95960e21b6064820152608401610974565b60008381526001602052604090205415610f0e5760405162461bcd60e51b815260206004820152601860248201527f496e74656e74207374696c6c206f75747374616e64696e6700000000000000006044820152606401610974565b828103610f5d5760405162461bcd60e51b815260206004820152601e60248201527f53656e6465722063616e6e6f7420626520746865206465706f7369746f7200006044820152606401610974565b60018201546001600160a01b0316610fb05760405162461bcd60e51b815260206004820152601660248201527511195c1bdcda5d08191bd95cc81b9bdd08195e1a5cdd60521b6044820152606401610974565b6000851161100f5760405162461bcd60e51b815260206004820152602660248201527f5369676e616c656420616d6f756e74206d75737420626520677265617465722060448201526507468616e20360d41b6064820152608401610974565b60065485111561107e5760405162461bcd60e51b815260206004820152603460248201527f5369676e616c656420616d6f756e74206d757374206265206c657373207468616044820152731b881b585e081bdb8b5c985b5c08185b5bdd5b9d60621b6064820152608401610974565b6001600160a01b0384166110d45760405162461bcd60e51b815260206004820152601b60248201527f43616e6e6f742073656e6420746f207a65726f206164647265737300000000006044820152606401610974565b604080516bffffffffffffffffffffffff193360601b1660208083019190915260348083018a9052835180840390910181526054909201909252805191012085836003015410156111c65760008061112b896129b8565b915091508781866003015461114091906138a7565b10156111855760405162461bcd60e51b81526020600482015260146024820152734e6f7420656e6f756768206c697175696469747960601b6044820152606401610974565b61118f8583612b60565b808560030160008282546111a391906138a7565b92505081905550808560040160008282546111be91906138ba565b909155505050505b6040805160a0810182523381526001600160a01b0387811660208084019182528385018c8152606085018c8152426080870190815260008981526004808652898220985189549089166001600160a01b0319918216178a5596516001808b01805492909a1691909816179097559251600288015590516003808801919091559051959094019490945588845252918120839055908401805488929061126c9084906138ba565b925050819055508583600401600082825461128791906138a7565b9091555050600683018054600181018255600091825260209182902001829055604080516001600160a01b0388811682529281018990524281830152905186928316918a9185917f9edf2569e5055735293c38e7f0e3dc216c444ae08220cffd08ff3f3cb991f85e919081900360600190a45050505050505050565b336000908152600260205260409020600101546005116113655760405162461bcd60e51b815260206004820152601e60248201527f4d6178696d756d206465706f73697420616d6f756e74207265616368656400006044820152606401610974565b6005548210156113d65760405162461bcd60e51b815260206004820152603660248201527f4465706f73697420616d6f756e74206d757374206265206772656174657220746044820152751a185b881b5a5b8819195c1bdcda5d08185b5bdd5b9d60521b6064820152608401610974565b600081116114345760405162461bcd60e51b815260206004820152602560248201527f5265636569766520616d6f756e74206d75737420626520677265617465722074604482015264068616e20360dc1b6064820152608401610974565b600082611449670de0b6b3a764000084613861565b61145391906138cd565b600c805491925060009190826114688361388e565b9091555033600081815260026020818152604080842060019081018054808301825590865283862001879055815160e0810183528781528084019687528083018c8152606082018d81526080830188815260a084018d815286518a8152808901885260c086019081528c8b526003808a5297909a20855181559a51958b0180546001600160a01b0319166001600160a01b0390971696909617909555915196890196909655945192870192909255925160048601559151600585015591518051949550909361153d9260068501920190613290565b50505060008181526003602081905260408220600b80546001818101835591909452815460079094027f0175b7a638427703f0dbe7bb9bbf987a2551717b34e79f33b5b1008d1fa01db98101948555908201547f0175b7a638427703f0dbe7bb9bbf987a2551717b34e79f33b5b1008d1fa01dba820180546001600160a01b0319166001600160a01b0390921691909117905560028201547f0175b7a638427703f0dbe7bb9bbf987a2551717b34e79f33b5b1008d1fa01dbb820155918101547f0175b7a638427703f0dbe7bb9bbf987a2551717b34e79f33b5b1008d1fa01dbc83015560048101547f0175b7a638427703f0dbe7bb9bbf987a2551717b34e79f33b5b1008d1fa01dbd83015560058101547f0175b7a638427703f0dbe7bb9bbf987a2551717b34e79f33b5b1008d1fa01dbe8301556006810180549193926116ab927f0175b7a638427703f0dbe7bb9bbf987a2551717b34e79f33b5b1008d1fa01dbf90910191906132db565b5050506000670de0b6b3a7640000856116c491906138cd565b6040516323b872dd60e01b8152336004820152306024820152604481018290529091507f00000000000000000000000000000000000000000000000000000000000000006001600160a01b0316906323b872dd906064016020604051808303816000875af115801561173a573d6000803e3d6000fd5b505050506040513d601f19601f8201168201806040525081019061175e91906138ef565b506040805186815260208101859052339184917fde5e24bfa39fef6b5f3734f72e07cb86525ab94ce96827eea4a1f3d9a8ea2ee3910160405180910390a35050505050565b6117ab61295e565b8060000361180f5760405162461bcd60e51b815260206004820152602b60248201527f4d617820696e74656e742065787069726174696f6e20706572696f642063616e60448201526a6e6f74206265207a65726f60a81b6064820152608401610974565b60088190556040518181527f55e3f6b95de9a0ec782f892e93fafe4e56be0696df204ddf8e0a40a9a713a80390602001610b30565b60606001600061185384612554565b81526020019081526020016000206002016000018054806020026020016040519081016040528092919081815260200182805480156118b157602002820191906000526020600020905b81548152602001906001019080831161189d575b50505050509050919050565b6001600160a01b038116600090815260026020908152604080832060010180548251818502810185019093528083526060949383018282801561191f57602002820191906000526020600020905b81548152602001906001019080831161190b575b50505050509050805167ffffffffffffffff811115611940576119406135e8565b60405190808252806020026020018201604052801561197957816020015b61196661331b565b81526020019060019003908161195e5790505b50915060005b8151811015611ad657600082828151811061199c5761199c613878565b602090810291909101810151600081815260038084526040808320815160e0810183528154815260018201546001600160a01b03168188015260028201548184015292810154606084015260048101546080840152600581015460a084015260068101805483518189028101890190945280845295975093959294909360c0860193909190830182828015611a5057602002820191906000526020600020905b815481526020019060010190808311611a3c575b50505050508152505090506000611a66836129b8565b9150506040518060800160405280848152602001611a878460200151612554565b8152602001838152602001828460600151611aa291906138a7565b815250868581518110611ab757611ab7613878565b602002602001018190525050505080611acf9061388e565b905061197f565b5050919050565b611ae561295e565b66b1a2bc2ec50000811115611b475760405162461bcd60e51b815260206004820152602260248201527f4665652063616e6e6f742062652067726561746572207468616e206d61782066604482015261656560f01b6064820152608401610974565b60098190556040518181527f44f48e1b871e6db1e909a7b253b054b7150a0b4ddf4d59b159c827d82e72567090602001610b30565b6000818152600460208181526040808420815160a08101835281546001600160a01b0390811682526001830154811682860152600283015482850181905260038085015460608501529390960154608083015294865292529092208251909116611c205760405162461bcd60e51b8152602060048201526015602482015274125b9d195b9d08191bd95cc81b9bdd08195e1a5cdd605a1b6044820152606401610974565b60018101546001600160a01b03163314611c7c5760405162461bcd60e51b815260206004820152601c60248201527f43616c6c6572206d75737420626520746865206465706f7369746f72000000006044820152606401610974565b611c868184612bc2565b8160600151816004016000828254611c9e91906138ba565b925050819055504260016000611cb78560000151612554565b815260200190815260200160002060010181905550611cda826040015182612cb8565b611ce48383612d9c565b505050565b6000805b8251811015611e50576000838281518110611d0a57611d0a613878565b6020908102919091018101516000818152600390925260409091206001810154919250906001600160a01b03163314611d855760405162461bcd60e51b815260206004820152601c60248201527f53656e646572206d75737420626520746865206465706f7369746f72000000006044820152606401610974565b600080611d91846129b8565b91509150611d9f8383612b60565b808360030154611daf91906138a7565b611db990876138a7565b955080836004016000828254611dcf91906138ba565b9091555050600183015460038401546001600160a01b039091169085907fae1f357660ab777dcfd38c0ab6357834684ec26289ecfa07ec65dbf6c3c6431290611e199085906138a7565b60405190815260200160405180910390a360006003840155611e3b8484612cb8565b5050505080611e499061388e565b9050611ced565b5060405163a9059cbb60e01b8152336004820152602481018290527f00000000000000000000000000000000000000000000000000000000000000006001600160a01b03169063a9059cbb906044016020604051808303816000875af1158015611ebe573d6000803e3d6000fd5b505050506040513d601f19601f82011682018060405250810190611ce491906138ef565b611eea61295e565b611ef46000612f7a565b565b6060815167ffffffffffffffff811115611f1257611f126135e8565b604051908082528060200260200182016040528015611f4b57816020015b611f3861331b565b815260200190600190039081611f305790505b50905060005b82518110156120a8576000838281518110611f6e57611f6e613878565b602090810291909101810151600081815260038084526040808320815160e0810183528154815260018201546001600160a01b03168188015260028201548184015292810154606084015260048101546080840152600581015460a084015260068101805483518189028101890190945280845295975093959294909360c086019390919083018282801561202257602002820191906000526020600020905b81548152602001906001019080831161200e575b50505050508152505090506000612038836129b8565b91505060405180608001604052808481526020016120598460200151612554565b815260200183815260200182846060015161207491906138a7565b81525085858151811061208957612089613878565b6020026020010181905250505050806120a19061388e565b9050611f51565b50919050565b60408051808201909152600081526060602082015260405180604001604052806120d784612554565b81526001600160a01b038416600090815260026020908152604091829020600101805483518184028101840190945280845293820193909183018282801561213e57602002820191906000526020600020905b81548152602001906001019080831161212a575b50505050508152509050919050565b61215561295e565b600054600160a01b900460ff16156121a55760405162461bcd60e51b8152602060048201526013602482015272105b1c9958591e481a5b9a5d1a585b1a5e9959606a1b6044820152606401610974565b6000805460ff60a01b1916600160a01b179055565b6000818152600460208181526040808420815160a08101835281546001600160a01b0390811682526001808401548216838701526002840154838601819052600380860154606086015294909701546080840152958752919093529320918201549092163314611c7c5760405162461bcd60e51b815260206004820152601c60248201527f43616c6c6572206d75737420626520746865206465706f7369746f72000000006044820152606401610974565b61227461295e565b806000036122ce5760405162461bcd60e51b815260206004820152602160248201527f4d6178206f6e2072616d7020616d6f756e742063616e6e6f74206265207a65726044820152606f60f81b6064820152608401610974565b60068190556040518181527fcab6b49ca21dd111cf4a55d507bbe89dd12d69216e28247060d4b2163ca41b3990602001610b30565b600061230e33612554565b600081815260016020908152604080832086845260030190915290205490915060ff166123745760405162461bcd60e51b8152602060048201526014602482015273155cd95c881b9bdd081bdb8819195b9e5b1a5cdd60621b6044820152606401610974565b6000818152600160208181526040808420868552600381018352908420805460ff1916905592849052526123ab9060020183612fca565b60408051828152602081018490527f8935205b1b382095d2d95efbb36f81a11a34c548d45af26adc1a02d2f2bb546f91016109f2565b6123e961324a565b600082815260036020818152604092839020835160e0810185528154815260018201546001600160a01b03168184015260028201548186015292810154606084015260048101546080840152600581015460a08401526006810180548551818502810185019096528086529394919360c086019383018282801561248c57602002820191906000526020600020905b815481526020019060010190808311612478575b5050505050815250509050919050565b6124a461295e565b6001600160a01b0381166125065760405162461bcd60e51b8152602060048201526024808201527f46656520726563697069656e742063616e6e6f74206265207a65726f206164646044820152637265737360e01b6064820152608401610974565b600a80546001600160a01b0319166001600160a01b0383169081179091556040519081527f594ad6ee98bfc0c73e6d15fd4e762502f359e05d26907b7fa1ff82eb5e99f6e490602001610b30565b6001600160a01b031660009081526002602052604090205490565b6000818152600460208181526040808420815160a08101835281546001600160a01b0390811682526001830154169381019390935260028101549183019190915260038101546060830152909101546080820181905290910361260c5760405162461bcd60e51b8152602060048201526015602482015274125b9d195b9d08191bd95cc81b9bdd08195e1a5cdd605a1b6044820152606401610974565b61261533612554565b815161262090612554565b1461266d5760405162461bcd60e51b815260206004820152601c60248201527f53656e646572206d75737420626520746865206f6e2d72616d706572000000006044820152606401610974565b60408082015160009081526003602052206126888184612bc2565b81606001518160030160008282546126a091906138a7565b909155505060608201516004820180546000906126be9084906138ba565b9091555050505050565b600b81815481106126d857600080fd5b60009182526020909120600790910201805460018201546002830154600384015460048501546005909501549395506001600160a01b0390921693909286565b606060008267ffffffffffffffff811115612735576127356135e8565b6040519080825280602002602001820160405280156127af57816020015b61279c60408051606080820183526000808352835160a0810185528181526020818101839052948101829052918201819052608082015290918201908152600060209091015290565b8152602001906001900390816127535790505b50905060005b838110156128a05760008585838181106127d1576127d1613878565b6020908102929092013560008181526004808552604091829020825160a08101845281546001600160a01b0390811682526001830154169681019690965260028101548684015260038101546060808801919091529101546080860152815190810190915290935090508088888681811061284e5761284e613878565b90506020020135815260200182815260200161286d8360000151612554565b81525084848151811061288257612882613878565b60200260200101819052505050806128999061388e565b90506127b5565b5090505b92915050565b6128b261295e565b6001600160a01b0381166129175760405162461bcd60e51b815260206004820152602660248201527f4f776e61626c653a206e6577206f776e657220697320746865207a65726f206160448201526564647265737360d01b6064820152608401610974565b61292081612f7a565b50565b60006001600061293285612554565b81526020808201929092526040908101600090812085825260030190925290205460ff16905092915050565b6000546001600160a01b03163314611ef45760405162461bcd60e51b815260206004820181905260248201527f4f776e61626c653a2063616c6c6572206973206e6f7420746865206f776e65726044820152606401610974565b60008181526003602090815260408083206006018054825181850281018501909352808352606094938493929190830182828015612a1557602002820191906000526020600020905b815481526020019060010190808311612a01575b50505050509050805167ffffffffffffffff811115612a3657612a366135e8565b604051908082528060200260200182016040528015612a5f578160200160208202803683370190505b50925060005b8151811015612b5957600060046000848481518110612a8657612a86613878565b6020908102919091018101518252818101929092526040908101600020815160a08101835281546001600160a01b039081168252600183015416938101939093526002810154918301919091526003810154606083015260040154608082018190526008549192504291612af9916138a7565b1015612b4857828281518110612b1157612b11613878565b6020026020010151858381518110612b2b57612b2b613878565b60209081029190910101526060810151612b4590856138a7565b93505b50612b528161388e565b9050612a65565b5050915091565b60005b8151811015611ce4576000801b828281518110612b8257612b82613878565b602002602001015114612bb257612bb283838381518110612ba557612ba5613878565b6020026020010151612bc2565b612bbb8161388e565b9050612b63565b6000818152600460208181526040808420815160a08101835281546001600160a01b0390811680835260018085015490921695830195909552600283015493820193909352600382015460608201529301546080840152919290612c2590612554565b81526020808201929092526040908101600090812081905584815260049283905290812080546001600160a01b031990811682556001820180549091169055600281018290556003810182905590910155612c836006840183612fca565b604080820151905183907fe8a865b4bab023c399cbd1f2cdd0df2199beb6e5012a4bd2d7691cf7e4199d5a90600090a3505050565b600081600301548260040154612cce91906138a7565b905080600003611ce4576001808301546001600160a01b03166000908152600260205260409020612d009101846130f2565b6001820154604080518581526001600160a01b0390921660208301527f8ac07cc6e38c6222dd0309c80353c1962354bacf222b825d7401cc80e93ff3cc910160405180910390a1600083815260036020819052604082208281556001810180546001600160a01b031916905560028101839055908101829055600481018290556005810182905590612d956006830182613347565b5050505050565b6000600954600014612e6857670de0b6b3a76400006009548360600151612dc39190613861565b612dcd91906138cd565b600a5460405163a9059cbb60e01b81526001600160a01b039182166004820152602481018390529192507f0000000000000000000000000000000000000000000000000000000000000000169063a9059cbb906044016020604051808303816000875af1158015612e42573d6000803e3d6000fd5b505050506040513d601f19601f82011682018060405250810190612e6691906138ef565b505b6000818360600151612e7a91906138ba565b602084015160405163a9059cbb60e01b81526001600160a01b039182166004820152602481018390529192507f0000000000000000000000000000000000000000000000000000000000000000169063a9059cbb906044016020604051808303816000875af1158015612ef1573d6000803e3d6000fd5b505050506040513d601f19601f82011682018060405250810190612f1591906138ef565b50825160408085015160208087015183516001600160a01b03918216815291820186905292810186905291909216919086907ffa03438194e61c243c6bb5349f1e1dc674431b86f119b5e3b2b327bc43446bce9060600160405180910390a450505050565b600080546001600160a01b038381166001600160a01b0319831681178455604051919092169283917f8be0079c531659141344cd1fd0a4f28419497f9722a3daafe3b4186f6b6457e09190a35050565b6000806130268480548060200260200160405190810160405280929190818152602001828054801561301b57602002820191906000526020600020905b815481526020019060010190808311613007575b505050505084613197565b915091508061306f5760405162461bcd60e51b8152602060048201526015602482015274313cba32b99999103737ba1034b71030b93930bc9760591b6044820152606401610974565b8354600090613080906001906138ba565b90508083146130c55784818154811061309b5761309b613878565b90600052602060002001548584815481106130b8576130b8613878565b6000918252602090912001555b848054806130d5576130d5613911565b600190038181906000526020600020016000905590555050505050565b60008061314e8480548060200260200160405190810160405280929190818152602001828054801561314357602002820191906000526020600020905b81548152602001906001019080831161312f575b5050505050846131fa565b915091508061306f5760405162461bcd60e51b81526020600482015260156024820152743ab4b73a191a9b103737ba1034b71030b93930bc9760591b6044820152606401610974565b81516000908190815b818110156131e757848682815181106131bb576131bb613878565b6020026020010151036131d5579250600191506131f39050565b806131df8161388e565b9150506131a0565b50600019600092509250505b9250929050565b81516000908190815b818110156131e7578486828151811061321e5761321e613878565b602002602001015103613238579250600191506131f39050565b806132428161388e565b915050613203565b6040518060e001604052806000815260200160006001600160a01b0316815260200160008152602001600081526020016000815260200160008152602001606081525090565b8280548282559060005260206000209081019282156132cb579160200282015b828111156132cb5782518255916020019190600101906132b0565b506132d7929150613361565b5090565b8280548282559060005260206000209081019282156132cb5760005260206000209182015b828111156132cb578254825591600101919060010190613300565b604080516080810182526000808252602082015290810161333a61324a565b8152602001600081525090565b508054600082559060005260206000209081019061292091905b5b808211156132d75760008155600101613362565b80356001600160a01b038116811461338d57600080fd5b919050565b6000602082840312156133a457600080fd5b6133ad82613376565b9392505050565b6000602082840312156133c657600080fd5b5035919050565b600060e0830182518452602060018060a01b0381850151168186015260408401516040860152606084015160608601526080840151608086015260a084015160a086015260c084015160e060c0870152828151808552610100880191508383019450600092505b808310156134545784518252938301936001929092019190830190613434565b509695505050505050565b6000602080830181845280855180835260408601915060408160051b870101925083870160005b828110156134b457603f198886030184526134a28583516133cd565b94509285019290850190600101613486565b5092979650505050505050565b6000806000606084860312156134d657600080fd5b83359250602084013591506134ed60408501613376565b90509250925092565b6000806040838503121561350957600080fd5b50508035926020909101359150565b6020808252825182820181905260009190848201906040850190845b8181101561355057835183529284019291840191600101613534565b50909695505050505050565b60006020808301818452808551808352604092508286019150828160051b87010184880160005b838110156135da57603f19898403018552815160808151855288820151898601528782015181898701526135b9828701826133cd565b60609384015196909301959095525094870194925090860190600101613583565b509098975050505050505050565b634e487b7160e01b600052604160045260246000fd5b6000602080838503121561361157600080fd5b823567ffffffffffffffff8082111561362957600080fd5b818501915085601f83011261363d57600080fd5b81358181111561364f5761364f6135e8565b8060051b604051601f19603f83011681018181108582111715613674576136746135e8565b60405291825284820192508381018501918883111561369257600080fd5b938501935b828510156136b057843584529385019392850192613697565b98975050505050505050565b60208082528251828201528281015160408084015280516060840181905260009291820190839060808601905b8083101561345457835182529284019260019290920191908401906136e9565b6020815260006133ad60208301846133cd565b6000806020838503121561372f57600080fd5b823567ffffffffffffffff8082111561374757600080fd5b818501915085601f83011261375b57600080fd5b81358181111561376a57600080fd5b8660208260051b850101111561377f57600080fd5b60209290920196919550909350505050565b602080825282518282018190526000919060409081850190868401855b82811015613814578151805185528681015180516001600160a01b039081168988015281890151168787015286810151606080880191909152810151608080880191909152015160a086015285015160c085015260e090930192908501906001016137ae565b5091979650505050505050565b6000806040838503121561383457600080fd5b61383d83613376565b946020939093013593505050565b634e487b7160e01b600052601160045260246000fd5b80820281158282048414176128a4576128a461384b565b634e487b7160e01b600052603260045260246000fd5b6000600182016138a0576138a061384b565b5060010190565b808201808211156128a4576128a461384b565b818103818111156128a4576128a461384b565b6000826138ea57634e487b7160e01b600052601260045260246000fd5b500490565b60006020828403121561390157600080fd5b815180151581146133ad57600080fd5b634e487b7160e01b600052603160045260246000fdfea2646970667358221220c9f03cb081a4f35169c56f232ae14cdfad0d7ead8f6dc1cafa7fffd20e1ab60564736f6c63430008120033",
  "linkReferences": {},
  "deployedLinkReferences": {}
}