{
  "_format": "hh-sol-artifact-1",
  "contractName": "BoomieRamp",
  "sourceName": "contracts/BoomieRamp.sol",
  "abi": [
    {
      "inputs": [
        {
          "internalType": "address",
          "name": "_owner",
          "type": "address"
        },
        {
          "internalType": "contract IERC20",
          "name": "_gho",
          "type": "address"
        },
        {
          "internalType": "uint256",
          "name": "_minDepositAmount",
          "type": "uint256"
        },
        {
          "internalType": "uint256",
          "name": "_maxOnRampAmount",
          "type": "uint256"
        },
        {
          "internalType": "uint256",
          "name": "_intentExpirationPeriod",
          "type": "uint256"
        },
        {
          "internalType": "uint256",
          "name": "_onRampCooldownPeriod",
          "type": "uint256"
        },
        {
          "internalType": "uint256",
          "name": "_sustainabilityFee",
          "type": "uint256"
        },
        {
          "internalType": "address",
          "name": "_sustainabilityFeeRecipient",
          "type": "address"
        }
      ],
      "stateMutability": "nonpayable",
      "type": "constructor"
    },
    {
      "anonymous": false,
      "inputs": [
        {
          "indexed": true,
          "internalType": "address",
          "name": "accountOwner",
          "type": "address"
        },
        {
          "indexed": true,
          "internalType": "bytes32",
          "name": "venmoIdHash",
          "type": "bytes32"
        }
      ],
      "name": "AccountRegistered",
      "type": "event"
    },
    {
      "anonymous": false,
      "inputs": [
        {
          "indexed": false,
          "internalType": "uint256",
          "name": "depositId",
          "type": "uint256"
        },
        {
          "indexed": false,
          "internalType": "address",
          "name": "sellerAccount",
          "type": "address"
        }
      ],
      "name": "DepositClosed",
      "type": "event"
    },
    {
      "anonymous": false,
      "inputs": [
        {
          "indexed": true,
          "internalType": "uint256",
          "name": "depositId",
          "type": "uint256"
        },
        {
          "indexed": true,
          "internalType": "address",
          "name": "sellerAccount",
          "type": "address"
        },
        {
          "indexed": false,
          "internalType": "uint256",
          "name": "amount",
          "type": "uint256"
        },
        {
          "indexed": false,
          "internalType": "uint256",
          "name": "conversionRate",
          "type": "uint256"
        }
      ],
      "name": "DepositReceived",
      "type": "event"
    },
    {
      "anonymous": false,
      "inputs": [
        {
          "indexed": true,
          "internalType": "uint256",
          "name": "depositId",
          "type": "uint256"
        },
        {
          "indexed": true,
          "internalType": "address",
          "name": "sellerAccount",
          "type": "address"
        },
        {
          "indexed": false,
          "internalType": "uint256",
          "name": "amount",
          "type": "uint256"
        }
      ],
      "name": "DepositWithdrawn",
      "type": "event"
    },
    {
      "anonymous": false,
      "inputs": [
        {
          "indexed": false,
          "internalType": "uint256",
          "name": "intentExpirationPeriod",
          "type": "uint256"
        }
      ],
      "name": "IntentExpirationPeriodSet",
      "type": "event"
    },
    {
      "anonymous": false,
      "inputs": [
        {
          "indexed": true,
          "internalType": "bytes32",
          "name": "intentHash",
          "type": "bytes32"
        },
        {
          "indexed": true,
          "internalType": "uint256",
          "name": "depositId",
          "type": "uint256"
        },
        {
          "indexed": true,
          "internalType": "address",
          "name": "buyerAccount",
          "type": "address"
        },
        {
          "indexed": false,
          "internalType": "address",
          "name": "to",
          "type": "address"
        },
        {
          "indexed": false,
          "internalType": "uint256",
          "name": "amount",
          "type": "uint256"
        },
        {
          "indexed": false,
          "internalType": "uint256",
          "name": "feeAmount",
          "type": "uint256"
        }
      ],
      "name": "IntentFulfilled",
      "type": "event"
    },
    {
      "anonymous": false,
      "inputs": [
        {
          "indexed": true,
          "internalType": "bytes32",
          "name": "intentHash",
          "type": "bytes32"
        },
        {
          "indexed": true,
          "internalType": "uint256",
          "name": "depositId",
          "type": "uint256"
        }
      ],
      "name": "IntentPruned",
      "type": "event"
    },
    {
      "anonymous": false,
      "inputs": [
        {
          "indexed": true,
          "internalType": "bytes32",
          "name": "intentHash",
          "type": "bytes32"
        },
        {
          "indexed": true,
          "internalType": "uint256",
          "name": "depositId",
          "type": "uint256"
        },
        {
          "indexed": true,
          "internalType": "address",
          "name": "buyerAccount",
          "type": "address"
        },
        {
          "indexed": false,
          "internalType": "address",
          "name": "to",
          "type": "address"
        },
        {
          "indexed": false,
          "internalType": "uint256",
          "name": "amount",
          "type": "uint256"
        },
        {
          "indexed": false,
          "internalType": "uint256",
          "name": "timestamp",
          "type": "uint256"
        }
      ],
      "name": "IntentSignaled",
      "type": "event"
    },
    {
      "anonymous": false,
      "inputs": [
        {
          "indexed": false,
          "internalType": "uint256",
          "name": "maxOnRampAmount",
          "type": "uint256"
        }
      ],
      "name": "MaxOnRampAmountSet",
      "type": "event"
    },
    {
      "anonymous": false,
      "inputs": [
        {
          "indexed": false,
          "internalType": "uint256",
          "name": "minDepositAmount",
          "type": "uint256"
        }
      ],
      "name": "MinDepositAmountSet",
      "type": "event"
    },
    {
      "anonymous": false,
      "inputs": [
        {
          "indexed": false,
          "internalType": "uint256",
          "name": "onRampCooldownPeriod",
          "type": "uint256"
        }
      ],
      "name": "OnRampCooldownPeriodSet",
      "type": "event"
    },
    {
      "anonymous": false,
      "inputs": [
        {
          "indexed": true,
          "internalType": "address",
          "name": "previousOwner",
          "type": "address"
        },
        {
          "indexed": true,
          "internalType": "address",
          "name": "newOwner",
          "type": "address"
        }
      ],
      "name": "OwnershipTransferred",
      "type": "event"
    },
    {
      "anonymous": false,
      "inputs": [
        {
          "indexed": false,
          "internalType": "address",
          "name": "feeRecipient",
          "type": "address"
        }
      ],
      "name": "SustainabilityFeeRecipientUpdated",
      "type": "event"
    },
    {
      "anonymous": false,
      "inputs": [
        {
          "indexed": false,
          "internalType": "uint256",
          "name": "fee",
          "type": "uint256"
        }
      ],
      "name": "SustainabilityFeeUpdated",
      "type": "event"
    },
    {
      "anonymous": false,
      "inputs": [
        {
          "indexed": false,
          "internalType": "bytes32",
          "name": "listOwner",
          "type": "bytes32"
        },
        {
          "indexed": false,
          "internalType": "bytes32",
          "name": "deniedUser",
          "type": "bytes32"
        }
      ],
      "name": "UserAddedToDenylist",
      "type": "event"
    },
    {
      "anonymous": false,
      "inputs": [
        {
          "indexed": false,
          "internalType": "bytes32",
          "name": "listOwner",
          "type": "bytes32"
        },
        {
          "indexed": false,
          "internalType": "bytes32",
          "name": "approvedUser",
          "type": "bytes32"
        }
      ],
      "name": "UserRemovedFromDenylist",
      "type": "event"
    },
    {
      "inputs": [
        {
          "internalType": "bytes32",
          "name": "_deniedUser",
          "type": "bytes32"
        }
      ],
      "name": "addAccountToDenylist",
      "outputs": [],
      "stateMutability": "nonpayable",
      "type": "function"
    },
    {
      "inputs": [
        {
          "internalType": "bytes32",
          "name": "_intentHash",
          "type": "bytes32"
        }
      ],
      "name": "cancelIntent",
      "outputs": [],
      "stateMutability": "nonpayable",
      "type": "function"
    },
    {
      "inputs": [],
      "name": "depositCounter",
      "outputs": [
        {
          "internalType": "uint256",
          "name": "",
          "type": "uint256"
        }
      ],
      "stateMutability": "view",
      "type": "function"
    },
    {
      "inputs": [
        {
          "internalType": "uint256",
          "name": "",
          "type": "uint256"
        }
      ],
      "name": "deposits",
      "outputs": [
        {
          "internalType": "address",
          "name": "depositor",
          "type": "address"
        },
        {
          "internalType": "uint256",
          "name": "depositAmount",
          "type": "uint256"
        },
        {
          "internalType": "uint256",
          "name": "remainingDeposits",
          "type": "uint256"
        },
        {
          "internalType": "uint256",
          "name": "outstandingIntentAmount",
          "type": "uint256"
        },
        {
          "internalType": "uint256",
          "name": "conversionRate",
          "type": "uint256"
        }
      ],
      "stateMutability": "view",
      "type": "function"
    },
    {
      "inputs": [
        {
          "internalType": "address",
          "name": "_account",
          "type": "address"
        }
      ],
      "name": "getAccountDeposits",
      "outputs": [
        {
          "components": [
            {
              "internalType": "uint256",
              "name": "depositId",
              "type": "uint256"
            },
            {
              "internalType": "bytes32",
              "name": "depositorIdHash",
              "type": "bytes32"
            },
            {
              "components": [
                {
                  "internalType": "address",
                  "name": "depositor",
                  "type": "address"
                },
                {
                  "internalType": "uint256",
                  "name": "depositAmount",
                  "type": "uint256"
                },
                {
                  "internalType": "uint256",
                  "name": "remainingDeposits",
                  "type": "uint256"
                },
                {
                  "internalType": "uint256",
                  "name": "outstandingIntentAmount",
                  "type": "uint256"
                },
                {
                  "internalType": "uint256",
                  "name": "conversionRate",
                  "type": "uint256"
                },
                {
                  "internalType": "bytes32[]",
                  "name": "intentHashes",
                  "type": "bytes32[]"
                }
              ],
              "internalType": "struct BoomieRamp.Deposit",
              "name": "deposit",
              "type": "tuple"
            },
            {
              "internalType": "uint256",
              "name": "availableLiquidity",
              "type": "uint256"
            }
          ],
          "internalType": "struct BoomieRamp.DepositWithAvailableLiquidity[]",
          "name": "accountDeposits",
          "type": "tuple[]"
        }
      ],
      "stateMutability": "view",
      "type": "function"
    },
    {
      "inputs": [
        {
          "internalType": "address",
          "name": "_account",
          "type": "address"
        }
      ],
      "name": "getAccountInfo",
      "outputs": [
        {
          "components": [
            {
              "internalType": "bytes32",
              "name": "venmoIdHash",
              "type": "bytes32"
            },
            {
              "internalType": "uint256[]",
              "name": "deposits",
              "type": "uint256[]"
            }
          ],
          "internalType": "struct BoomieRamp.AccountInfo",
          "name": "",
          "type": "tuple"
        }
      ],
      "stateMutability": "view",
      "type": "function"
    },
    {
      "inputs": [
        {
          "internalType": "address",
          "name": "_account",
          "type": "address"
        }
      ],
      "name": "getAccountVenmoIdHash",
      "outputs": [
        {
          "internalType": "bytes32",
          "name": "",
          "type": "bytes32"
        }
      ],
      "stateMutability": "view",
      "type": "function"
    },
    {
      "inputs": [
        {
          "internalType": "address",
          "name": "_account",
          "type": "address"
        }
      ],
      "name": "getDeniedUsers",
      "outputs": [
        {
          "internalType": "bytes32[]",
          "name": "",
          "type": "bytes32[]"
        }
      ],
      "stateMutability": "view",
      "type": "function"
    },
    {
      "inputs": [
        {
          "internalType": "uint256",
          "name": "_depositId",
          "type": "uint256"
        }
      ],
      "name": "getDeposit",
      "outputs": [
        {
          "components": [
            {
              "internalType": "address",
              "name": "depositor",
              "type": "address"
            },
            {
              "internalType": "uint256",
              "name": "depositAmount",
              "type": "uint256"
            },
            {
              "internalType": "uint256",
              "name": "remainingDeposits",
              "type": "uint256"
            },
            {
              "internalType": "uint256",
              "name": "outstandingIntentAmount",
              "type": "uint256"
            },
            {
              "internalType": "uint256",
              "name": "conversionRate",
              "type": "uint256"
            },
            {
              "internalType": "bytes32[]",
              "name": "intentHashes",
              "type": "bytes32[]"
            }
          ],
          "internalType": "struct BoomieRamp.Deposit",
          "name": "",
          "type": "tuple"
        }
      ],
      "stateMutability": "view",
      "type": "function"
    },
    {
      "inputs": [
        {
          "internalType": "uint256[]",
          "name": "_depositIds",
          "type": "uint256[]"
        }
      ],
      "name": "getDepositFromIds",
      "outputs": [
        {
          "components": [
            {
              "internalType": "uint256",
              "name": "depositId",
              "type": "uint256"
            },
            {
              "internalType": "bytes32",
              "name": "depositorIdHash",
              "type": "bytes32"
            },
            {
              "components": [
                {
                  "internalType": "address",
                  "name": "depositor",
                  "type": "address"
                },
                {
                  "internalType": "uint256",
                  "name": "depositAmount",
                  "type": "uint256"
                },
                {
                  "internalType": "uint256",
                  "name": "remainingDeposits",
                  "type": "uint256"
                },
                {
                  "internalType": "uint256",
                  "name": "outstandingIntentAmount",
                  "type": "uint256"
                },
                {
                  "internalType": "uint256",
                  "name": "conversionRate",
                  "type": "uint256"
                },
                {
                  "internalType": "bytes32[]",
                  "name": "intentHashes",
                  "type": "bytes32[]"
                }
              ],
              "internalType": "struct BoomieRamp.Deposit",
              "name": "deposit",
              "type": "tuple"
            },
            {
              "internalType": "uint256",
              "name": "availableLiquidity",
              "type": "uint256"
            }
          ],
          "internalType": "struct BoomieRamp.DepositWithAvailableLiquidity[]",
          "name": "depositArray",
          "type": "tuple[]"
        }
      ],
      "stateMutability": "view",
      "type": "function"
    },
    {
      "inputs": [
        {
          "internalType": "bytes32[]",
          "name": "_intentHashes",
          "type": "bytes32[]"
        }
      ],
      "name": "getIntentsWithOnRamperId",
      "outputs": [
        {
          "components": [
            {
              "internalType": "bytes32",
              "name": "intentHash",
              "type": "bytes32"
            },
            {
              "components": [
                {
                  "internalType": "address",
                  "name": "buyerAccount",
                  "type": "address"
                },
                {
                  "internalType": "address",
                  "name": "to",
                  "type": "address"
                },
                {
                  "internalType": "uint256",
                  "name": "deposit",
                  "type": "uint256"
                },
                {
                  "internalType": "uint256",
                  "name": "amount",
                  "type": "uint256"
                },
                {
                  "internalType": "uint256",
                  "name": "intentTimestamp",
                  "type": "uint256"
                }
              ],
              "internalType": "struct BoomieRamp.Intent",
              "name": "intent",
              "type": "tuple"
            },
            {
              "internalType": "bytes32",
              "name": "onRamperIdHash",
              "type": "bytes32"
            }
          ],
          "internalType": "struct BoomieRamp.IntentWithOnRamperId[]",
          "name": "",
          "type": "tuple[]"
        }
      ],
      "stateMutability": "view",
      "type": "function"
    },
    {
      "inputs": [
        {
          "internalType": "address",
          "name": "_account",
          "type": "address"
        }
      ],
      "name": "getLastOnRampTimestamp",
      "outputs": [
        {
          "internalType": "uint256",
          "name": "",
          "type": "uint256"
        }
      ],
      "stateMutability": "view",
      "type": "function"
    },
    {
      "inputs": [
        {
          "internalType": "address",
          "name": "_account",
          "type": "address"
        }
      ],
      "name": "getVenmoIdCurrentIntentHash",
      "outputs": [
        {
          "internalType": "bytes32",
          "name": "",
          "type": "bytes32"
        }
      ],
      "stateMutability": "view",
      "type": "function"
    },
    {
      "inputs": [],
      "name": "gho",
      "outputs": [
        {
          "internalType": "contract IERC20",
          "name": "",
          "type": "address"
        }
      ],
      "stateMutability": "view",
      "type": "function"
    },
    {
      "inputs": [],
      "name": "initialize",
      "outputs": [],
      "stateMutability": "nonpayable",
      "type": "function"
    },
    {
      "inputs": [],
      "name": "intentExpirationPeriod",
      "outputs": [
        {
          "internalType": "uint256",
          "name": "",
          "type": "uint256"
        }
      ],
      "stateMutability": "view",
      "type": "function"
    },
    {
      "inputs": [
        {
          "internalType": "bytes32",
          "name": "",
          "type": "bytes32"
        }
      ],
      "name": "intents",
      "outputs": [
        {
          "internalType": "address",
          "name": "buyerAccount",
          "type": "address"
        },
        {
          "internalType": "address",
          "name": "to",
          "type": "address"
        },
        {
          "internalType": "uint256",
          "name": "deposit",
          "type": "uint256"
        },
        {
          "internalType": "uint256",
          "name": "amount",
          "type": "uint256"
        },
        {
          "internalType": "uint256",
          "name": "intentTimestamp",
          "type": "uint256"
        }
      ],
      "stateMutability": "view",
      "type": "function"
    },
    {
      "inputs": [
        {
          "internalType": "address",
          "name": "_account",
          "type": "address"
        },
        {
          "internalType": "bytes32",
          "name": "_deniedUser",
          "type": "bytes32"
        }
      ],
      "name": "isDeniedUser",
      "outputs": [
        {
          "internalType": "bool",
          "name": "",
          "type": "bool"
        }
      ],
      "stateMutability": "view",
      "type": "function"
    },
    {
      "inputs": [],
      "name": "isInitialized",
      "outputs": [
        {
          "internalType": "bool",
          "name": "",
          "type": "bool"
        }
      ],
      "stateMutability": "view",
      "type": "function"
    },
    {
      "inputs": [],
      "name": "maxOnRampAmount",
      "outputs": [
        {
          "internalType": "uint256",
          "name": "",
          "type": "uint256"
        }
      ],
      "stateMutability": "view",
      "type": "function"
    },
    {
      "inputs": [],
      "name": "minDepositAmount",
      "outputs": [
        {
          "internalType": "uint256",
          "name": "",
          "type": "uint256"
        }
      ],
      "stateMutability": "view",
      "type": "function"
    },
    {
      "inputs": [
        {
          "internalType": "uint256",
          "name": "_depositAmount",
          "type": "uint256"
        },
        {
          "internalType": "uint256",
          "name": "_receiveAmount",
          "type": "uint256"
        }
      ],
      "name": "offRamp",
      "outputs": [],
      "stateMutability": "nonpayable",
      "type": "function"
    },
    {
      "inputs": [
        {
          "internalType": "bytes32",
          "name": "_intentHash",
          "type": "bytes32"
        }
      ],
      "name": "onRamp",
      "outputs": [],
      "stateMutability": "nonpayable",
      "type": "function"
    },
    {
      "inputs": [],
      "name": "onRampCooldownPeriod",
      "outputs": [
        {
          "internalType": "uint256",
          "name": "",
          "type": "uint256"
        }
      ],
      "stateMutability": "view",
      "type": "function"
    },
    {
      "inputs": [],
      "name": "owner",
      "outputs": [
        {
          "internalType": "address",
          "name": "",
          "type": "address"
        }
      ],
      "stateMutability": "view",
      "type": "function"
    },
    {
      "inputs": [],
      "name": "register",
      "outputs": [],
      "stateMutability": "nonpayable",
      "type": "function"
    },
    {
      "inputs": [
        {
          "internalType": "bytes32",
          "name": "_intentHash",
          "type": "bytes32"
        }
      ],
      "name": "releaseFundsToOnramper",
      "outputs": [],
      "stateMutability": "nonpayable",
      "type": "function"
    },
    {
      "inputs": [
        {
          "internalType": "bytes32",
          "name": "_approvedUser",
          "type": "bytes32"
        }
      ],
      "name": "removeAccountFromDenylist",
      "outputs": [],
      "stateMutability": "nonpayable",
      "type": "function"
    },
    {
      "inputs": [],
      "name": "renounceOwnership",
      "outputs": [],
      "stateMutability": "nonpayable",
      "type": "function"
    },
    {
      "inputs": [
        {
          "internalType": "uint256",
          "name": "_intentExpirationPeriod",
          "type": "uint256"
        }
      ],
      "name": "setIntentExpirationPeriod",
      "outputs": [],
      "stateMutability": "nonpayable",
      "type": "function"
    },
    {
      "inputs": [
        {
          "internalType": "uint256",
          "name": "_maxOnRampAmount",
          "type": "uint256"
        }
      ],
      "name": "setMaxOnRampAmount",
      "outputs": [],
      "stateMutability": "nonpayable",
      "type": "function"
    },
    {
      "inputs": [
        {
          "internalType": "uint256",
          "name": "_minDepositAmount",
          "type": "uint256"
        }
      ],
      "name": "setMinDepositAmount",
      "outputs": [],
      "stateMutability": "nonpayable",
      "type": "function"
    },
    {
      "inputs": [
        {
          "internalType": "uint256",
          "name": "_onRampCooldownPeriod",
          "type": "uint256"
        }
      ],
      "name": "setOnRampCooldownPeriod",
      "outputs": [],
      "stateMutability": "nonpayable",
      "type": "function"
    },
    {
      "inputs": [
        {
          "internalType": "uint256",
          "name": "_fee",
          "type": "uint256"
        }
      ],
      "name": "setSustainabilityFee",
      "outputs": [],
      "stateMutability": "nonpayable",
      "type": "function"
    },
    {
      "inputs": [
        {
          "internalType": "address",
          "name": "_feeRecipient",
          "type": "address"
        }
      ],
      "name": "setSustainabilityFeeRecipient",
      "outputs": [],
      "stateMutability": "nonpayable",
      "type": "function"
    },
    {
      "inputs": [
        {
          "internalType": "uint256",
          "name": "_depositId",
          "type": "uint256"
        },
        {
          "internalType": "uint256",
          "name": "_amount",
          "type": "uint256"
        },
        {
          "internalType": "address",
          "name": "_to",
          "type": "address"
        }
      ],
      "name": "signalIntent",
      "outputs": [],
      "stateMutability": "nonpayable",
      "type": "function"
    },
    {
      "inputs": [],
      "name": "sustainabilityFee",
      "outputs": [
        {
          "internalType": "uint256",
          "name": "",
          "type": "uint256"
        }
      ],
      "stateMutability": "view",
      "type": "function"
    },
    {
      "inputs": [],
      "name": "sustainabilityFeeRecipient",
      "outputs": [
        {
          "internalType": "address",
          "name": "",
          "type": "address"
        }
      ],
      "stateMutability": "view",
      "type": "function"
    },
    {
      "inputs": [
        {
          "internalType": "address",
          "name": "newOwner",
          "type": "address"
        }
      ],
      "name": "transferOwnership",
      "outputs": [],
      "stateMutability": "nonpayable",
      "type": "function"
    },
    {
      "inputs": [
        {
          "internalType": "uint256[]",
          "name": "_depositIds",
          "type": "uint256[]"
        }
      ],
      "name": "withdrawDeposit",
      "outputs": [],
      "stateMutability": "nonpayable",
      "type": "function"
    },
    {
      "stateMutability": "payable",
      "type": "receive"
    }
  ],
  "bytecode": "0x60a06040523480156200001157600080fd5b5060405162003732380380620037328339810160408190526200003491620001dd565b6200003f3362000096565b6001600160a01b0387811660805260058790556006869055600885905560078490556009839055600a80546001600160a01b0319169183169190911790556200008888620000e6565b505050505050505062000263565b600080546001600160a01b038381166001600160a01b0319831681178455604051919092169283917f8be0079c531659141344cd1fd0a4f28419497f9722a3daafe3b4186f6b6457e09190a35050565b620000f062000169565b6001600160a01b0381166200015b5760405162461bcd60e51b815260206004820152602660248201527f4f776e61626c653a206e6577206f776e657220697320746865207a65726f206160448201526564647265737360d01b60648201526084015b60405180910390fd5b620001668162000096565b50565b6000546001600160a01b03163314620001c55760405162461bcd60e51b815260206004820181905260248201527f4f776e61626c653a2063616c6c6572206973206e6f7420746865206f776e6572604482015260640162000152565b565b6001600160a01b03811681146200016657600080fd5b600080600080600080600080610100898b031215620001fb57600080fd5b88516200020881620001c7565b60208a01519098506200021b81620001c7565b8097505060408901519550606089015194506080890151935060a0890151925060c0890151915060e08901516200025281620001c7565b809150509295985092959890939650565b6080516134976200029b600039600081816107510152818161134a01528181611abb015281816129b20152612a6101526134976000f3fe60806040526004361061023f5760003560e01c80637b510fe81161012e578063b3fa4c01116100ab578063e279d9641161006f578063e279d964146107b3578063ecb3dc88146107c9578063ecd618f0146107df578063f2fde38b1461080c578063fbf15b1f1461082c57600080fd5b8063b3fa4c01146106ff578063cc181c2e1461071f578063d1af1ca91461073f578063d55f960d14610773578063d9478d201461079357600080fd5b80639087beff116100f25780639087beff146105f55780639b357b5a146106155780639f9fb96814610635578063a1a954b714610662578063b02c43d01461067857600080fd5b80637b510fe8146104d75780638129fc1c1461050457806381d07e89146105195780638da5cb5b146105395780639021578a1461056b57600080fd5b806342987349116101bc578063645006ca11610180578063645006ca1461044c57806366ec8419146104625780637113476214610482578063715018a6146104a257806371a28f69146104b757600080fd5b8063429873491461039c5780634595bba0146103bc578063495223e7146103e95780635081d952146103ff5780635dd765151461042c57600080fd5b80632a80cda3116102035780632a80cda3146102eb578063317dcc961461030b578063392e53cd1461032b5780633adba28a1461035c5780633d480aff1461037c57600080fd5b80630f1ef98c1461024b578063123a11e41461027e578063148172da1461029e5780631aa3a008146102c0578063238c8494146102d557600080fd5b3661024657005b600080fd5b34801561025757600080fd5b5061026b610266366004612f04565b61084c565b6040519081526020015b60405180910390f35b34801561028a57600080fd5b5061026b610299366004612f04565b610874565b3480156102aa57600080fd5b506102be6102b9366004612f26565b61089a565b005b3480156102cc57600080fd5b506102be6109c7565b3480156102e157600080fd5b5061026b60095481565b3480156102f757600080fd5b506102be610306366004612f26565b610a70565b34801561031757600080fd5b506102be610326366004612f26565b610b04565b34801561033757600080fd5b5060005461034c90600160a01b900460ff1681565b6040519015158152602001610275565b34801561036857600080fd5b506102be610377366004612f3f565b610b41565b34801561038857600080fd5b506102be610397366004612f74565b6110d2565b3480156103a857600080fd5b506102be6103b7366004612f26565b611404565b3480156103c857600080fd5b506103dc6103d7366004612f04565b6114a5565b6040516102759190612f96565b3480156103f557600080fd5b5061026b60075481565b34801561040b57600080fd5b5061041f61041a366004612f04565b61151e565b604051610275919061305f565b34801561043857600080fd5b506102be610447366004612f26565b611734565b34801561045857600080fd5b5061026b60055481565b34801561046e57600080fd5b506102be61047d366004612f26565b6117d3565b34801561048e57600080fd5b506102be61049d366004613101565b61193d565b3480156104ae57600080fd5b506102be611b30565b3480156104c357600080fd5b5061041f6104d2366004613101565b611b44565b3480156104e357600080fd5b506104f76104f2366004612f04565b611cf2565b60405161027591906131bf565b34801561051057600080fd5b506102be611d91565b34801561052557600080fd5b506102be610534366004612f26565b611dfe565b34801561054557600080fd5b506000546001600160a01b03165b6040516001600160a01b039091168152602001610275565b34801561057757600080fd5b506105c2610586366004612f26565b6004602081905260009182526040909120805460018201546002830154600384015493909401546001600160a01b039283169492909116929085565b604080516001600160a01b039687168152959094166020860152928401919091526060830152608082015260a001610275565b34801561060157600080fd5b506102be610610366004612f26565b611e63565b34801561062157600080fd5b506102be610630366004612f26565b611efa565b34801561064157600080fd5b50610655610650366004612f26565b612000565b604051610275919061320c565b34801561066e57600080fd5b5061026b60085481565b34801561068457600080fd5b506106cd610693366004612f26565b6003602081905260009182526040909120805460018201546002830154938301546004909301546001600160a01b03909216939092909185565b604080516001600160a01b0390961686526020860194909452928401919091526060830152608082015260a001610275565b34801561070b57600080fd5b506102be61071a366004612f04565b6120b1565b34801561072b57600080fd5b5061026b61073a366004612f04565b612169565b34801561074b57600080fd5b506105537f000000000000000000000000000000000000000000000000000000000000000081565b34801561077f57600080fd5b506102be61078e366004612f26565b612184565b34801561079f57600080fd5b50600a54610553906001600160a01b031681565b3480156107bf57600080fd5b5061026b60065481565b3480156107d557600080fd5b5061026b600b5481565b3480156107eb57600080fd5b506107ff6107fa36600461321f565b6122dd565b6040516102759190613294565b34801561081857600080fd5b506102be610827366004612f04565b61246f565b34801561083857600080fd5b5061034c610847366004613324565b6124e8565b60006001600061085b84612169565b8152602001908152602001600020600101549050919050565b60006001600061088384612169565b815260208101919091526040016000205492915050565b60006108a533612169565b036108cb5760405162461bcd60e51b81526004016108c29061334e565b60405180910390fd5b60006108d633612169565b600081815260016020908152604080832086845260030190915290205490915060ff16156109465760405162461bcd60e51b815260206004820152601860248201527f5573657220616c7265616479206f6e2064656e796c697374000000000000000060448201526064016108c2565b6000818152600160208181526040808420868552600381018352818520805460ff191685179055838352600201805493840181558452922001839055517f976c693d56f27ba17d902bda80c4fa0416b773fbf268bcb0ee71689234d769ee906109bb9083908590918252602082015260400190565b60405180910390a15050565b60006109d233612169565b14610a2f5760405162461bcd60e51b815260206004820152602760248201527f4163636f756e7420616c7265616479206173736f6369617465642077697468206044820152661d995b9b5bd25960ca1b60648201526084016108c2565b33600081815260026020526040808220839055518291829182917f672144042732f7b1cdbf0772464ae545aedd7f41d38b8487dafd9085496a5d5191a35050565b610a78612523565b80600003610ac85760405162461bcd60e51b815260206004820152601e60248201527f4d696e696d756d206465706f7369742063616e6e6f74206265207a65726f000060448201526064016108c2565b60058190556040518181527fbdde72a6d8d8b42770c9899945ccdce09d0c5c794d3326cdb2d2cca61b12a9fc906020015b60405180910390a150565b610b0c612523565b60078190556040518181527f88397975d177ce5e18abf3a5fdb8de773e80673d85eeb54f48cfaf688b3d2c3e90602001610af9565b6000610b4c33612169565b03610b695760405162461bcd60e51b81526004016108c29061334e565b6000610b7433612169565b6000858152600360205260408120805492935091610b9a906001600160a01b0316612169565b600081815260016020908152604080832087845260030190915290205490915060ff1615610c0a5760405162461bcd60e51b815260206004820181905260248201527f4f6e72616d706572206f6e206465706f7369746f7227732064656e796c69737460448201526064016108c2565b600754600084815260016020819052604090912001544291610c2b9161339b565b1115610c855760405162461bcd60e51b8152602060048201526024808201527f4f6e2072616d7020636f6f6c20646f776e20706572696f64206e6f7420656c616044820152631c1cd95960e21b60648201526084016108c2565b60008381526001602052604090205415610ce15760405162461bcd60e51b815260206004820152601860248201527f496e74656e74207374696c6c206f75747374616e64696e67000000000000000060448201526064016108c2565b828103610d305760405162461bcd60e51b815260206004820152601e60248201527f53656e6465722063616e6e6f7420626520746865206465706f7369746f72000060448201526064016108c2565b81546001600160a01b0316610d805760405162461bcd60e51b815260206004820152601660248201527511195c1bdcda5d08191bd95cc81b9bdd08195e1a5cdd60521b60448201526064016108c2565b60008511610ddf5760405162461bcd60e51b815260206004820152602660248201527f5369676e616c656420616d6f756e74206d75737420626520677265617465722060448201526507468616e20360d41b60648201526084016108c2565b600654851115610e4e5760405162461bcd60e51b815260206004820152603460248201527f5369676e616c656420616d6f756e74206d757374206265206c657373207468616044820152731b881b585e081bdb8b5c985b5c08185b5bdd5b9d60621b60648201526084016108c2565b6001600160a01b038416610ea45760405162461bcd60e51b815260206004820152601b60248201527f43616e6e6f742073656e6420746f207a65726f2061646472657373000000000060448201526064016108c2565b604080516bffffffffffffffffffffffff193360601b1660208083019190915260348083018a905283518084039091018152605490920190925280519101208583600201541015610f9657600080610efb8961257d565b9150915087818660020154610f10919061339b565b1015610f555760405162461bcd60e51b81526020600482015260146024820152734e6f7420656e6f756768206c697175696469747960601b60448201526064016108c2565b610f5f8583612725565b80856002016000828254610f73919061339b565b9250508190555080856003016000828254610f8e91906133ae565b909155505050505b6040805160a0810182523381526001600160a01b0387811660208084019182528385018c8152606085018c8152426080870190815260008981526004808652898220985189549089166001600160a01b0319918216178a5596516001808b01805492909a16919098161790975592516002808901919091559151600388015551959094019490945588845252918120839055908401805488929061103b9084906133ae565b9250508190555085836003016000828254611056919061339b565b9091555050600583018054600181018255600091825260209182902001829055604080516001600160a01b0388811682529281018990524281830152905186928316918a9185917f9edf2569e5055735293c38e7f0e3dc216c444ae08220cffd08ff3f3cb991f85e919081900360600190a45050505050505050565b60006110dd33612169565b036110fa5760405162461bcd60e51b81526004016108c29061334e565b3360009081526002602052604090206001015460051161115c5760405162461bcd60e51b815260206004820152601e60248201527f4d6178696d756d206465706f73697420616d6f756e742072656163686564000060448201526064016108c2565b6005548210156111cd5760405162461bcd60e51b815260206004820152603660248201527f4465706f73697420616d6f756e74206d757374206265206772656174657220746044820152751a185b881b5a5b8819195c1bdcda5d08185b5bdd5b9d60521b60648201526084016108c2565b6000811161122b5760405162461bcd60e51b815260206004820152602560248201527f5265636569766520616d6f756e74206d75737420626520677265617465722074604482015264068616e20360dc1b60648201526084016108c2565b600081611240670de0b6b3a7640000856133c1565b61124a91906133d8565b600b8054919250600091908261125f836133fa565b9091555033600081815260026020818152604080842060019081018054808301825590865283862001879055815160c0810183529586528583018b81528683018c815260608801878152608089018c81528551898152808801875260a08b019081528b8a526003808952969099208a5181546001600160a01b0319166001600160a01b039091161781559351948401949094559051958201959095559351918401919091555160048301559151805194955092939092611326926005850192910190612e03565b50506040516323b872dd60e01b8152336004820152306024820152604481018690527f00000000000000000000000000000000000000000000000000000000000000006001600160a01b031691506323b872dd906064016020604051808303816000875af115801561139c573d6000803e3d6000fd5b505050506040513d601f19601f820116820180604052508101906113c09190613413565b506040805185815260208101849052339183917fde5e24bfa39fef6b5f3734f72e07cb86525ab94ce96827eea4a1f3d9a8ea2ee3910160405180910390a350505050565b61140c612523565b806000036114705760405162461bcd60e51b815260206004820152602b60248201527f4d617820696e74656e742065787069726174696f6e20706572696f642063616e60448201526a6e6f74206265207a65726f60a81b60648201526084016108c2565b60088190556040518181527f55e3f6b95de9a0ec782f892e93fafe4e56be0696df204ddf8e0a40a9a713a80390602001610af9565b6060600160006114b484612169565b815260200190815260200160002060020160000180548060200260200160405190810160405280929190818152602001828054801561151257602002820191906000526020600020905b8154815260200190600101908083116114fe575b50505050509050919050565b6001600160a01b038116600090815260026020908152604080832060010180548251818502810185019093528083526060949383018282801561158057602002820191906000526020600020905b81548152602001906001019080831161156c575b50505050509050805167ffffffffffffffff8111156115a1576115a16130eb565b6040519080825280602002602001820160405280156115da57816020015b6115c7612e4e565b8152602001906001900390816115bf5790505b50915060005b815181101561172d5760008282815181106115fd576115fd613435565b602090810291909101810151600081815260038084526040808320815160c08101835281546001600160a01b031681526001820154818801526002820154818401529281015460608401526004810154608084015260058101805483518189028101890190945280845295975093959294909360a08601939091908301828280156116a757602002820191906000526020600020905b815481526020019060010190808311611693575b505050505081525050905060006116bd8361257d565b91505060405180608001604052808481526020016116de8460000151612169565b81526020018381526020018284604001516116f9919061339b565b81525086858151811061170e5761170e613435565b602002602001018190525050505080611726906133fa565b90506115e0565b5050919050565b61173c612523565b66b1a2bc2ec5000081111561179e5760405162461bcd60e51b815260206004820152602260248201527f4665652063616e6e6f742062652067726561746572207468616e206d61782066604482015261656560f01b60648201526084016108c2565b60098190556040518181527f44f48e1b871e6db1e909a7b253b054b7150a0b4ddf4d59b159c827d82e72567090602001610af9565b6000818152600460208181526040808420815160a08101835281546001600160a01b03908116825260018301548116828601526002830154828501819052600380850154606085015293909601546080830152948652925290922082519091166118775760405162461bcd60e51b8152602060048201526015602482015274125b9d195b9d08191bd95cc81b9bdd08195e1a5cdd605a1b60448201526064016108c2565b80546001600160a01b031633146118d05760405162461bcd60e51b815260206004820152601c60248201527f43616c6c6572206d75737420626520746865206465706f7369746f720000000060448201526064016108c2565b6118da8184612787565b81606001518160030160008282546118f291906133ae565b92505081905550426001600061190b8560000151612169565b81526020019081526020016000206001018190555061192e82604001518261287d565b6119388383612955565b505050565b6000805b8251811015611a9e57600083828151811061195e5761195e613435565b6020908102919091018101516000818152600390925260409091208054919250906001600160a01b031633146119d65760405162461bcd60e51b815260206004820152601c60248201527f53656e646572206d75737420626520746865206465706f7369746f720000000060448201526064016108c2565b6000806119e28461257d565b915091506119f08383612725565b808360020154611a00919061339b565b611a0a908761339b565b955080836003016000828254611a2091906133ae565b9091555050825460028401546001600160a01b039091169085907fae1f357660ab777dcfd38c0ab6357834684ec26289ecfa07ec65dbf6c3c6431290611a6790859061339b565b60405190815260200160405180910390a360006002840155611a89848461287d565b5050505080611a97906133fa565b9050611941565b5060405163a9059cbb60e01b8152336004820152602481018290527f00000000000000000000000000000000000000000000000000000000000000006001600160a01b03169063a9059cbb906044016020604051808303816000875af1158015611b0c573d6000803e3d6000fd5b505050506040513d601f19601f820116820180604052508101906119389190613413565b611b38612523565b611b426000612b33565b565b6060815167ffffffffffffffff811115611b6057611b606130eb565b604051908082528060200260200182016040528015611b9957816020015b611b86612e4e565b815260200190600190039081611b7e5790505b50905060005b8251811015611cec576000838281518110611bbc57611bbc613435565b602090810291909101810151600081815260038084526040808320815160c08101835281546001600160a01b031681526001820154818801526002820154818401529281015460608401526004810154608084015260058101805483518189028101890190945280845295975093959294909360a0860193909190830182828015611c6657602002820191906000526020600020905b815481526020019060010190808311611c52575b50505050508152505090506000611c7c8361257d565b9150506040518060800160405280848152602001611c9d8460000151612169565b8152602001838152602001828460400151611cb8919061339b565b815250858581518110611ccd57611ccd613435565b602002602001018190525050505080611ce5906133fa565b9050611b9f565b50919050565b6040805180820190915260008152606060208201526040518060400160405280611d1b84612169565b81526001600160a01b0384166000908152600260209081526040918290206001018054835181840281018401909452808452938201939091830182828015611d8257602002820191906000526020600020905b815481526020019060010190808311611d6e575b50505050508152509050919050565b611d99612523565b600054600160a01b900460ff1615611de95760405162461bcd60e51b8152602060048201526013602482015272105b1c9958591e481a5b9a5d1a585b1a5e9959606a1b60448201526064016108c2565b6000805460ff60a01b1916600160a01b179055565b6000818152600460208181526040808420815160a08101835281546001600160a01b0390811682526001830154168185015260028201548184018190526003808401546060840152929095015460808201529385529091529091206118da8184612787565b611e6b612523565b80600003611ec55760405162461bcd60e51b815260206004820152602160248201527f4d6178206f6e2072616d7020616d6f756e742063616e6e6f74206265207a65726044820152606f60f81b60648201526084016108c2565b60068190556040518181527fcab6b49ca21dd111cf4a55d507bbe89dd12d69216e28247060d4b2163ca41b3990602001610af9565b6000611f0533612169565b03611f225760405162461bcd60e51b81526004016108c29061334e565b6000611f2d33612169565b600081815260016020908152604080832086845260030190915290205490915060ff16611f935760405162461bcd60e51b8152602060048201526014602482015273155cd95c881b9bdd081bdb8819195b9e5b1a5cdd60621b60448201526064016108c2565b6000818152600160208181526040808420868552600381018352908420805460ff191690559284905252611fca9060020183612b83565b60408051828152602081018490527f8935205b1b382095d2d95efbb36f81a11a34c548d45af26adc1a02d2f2bb546f91016109bb565b612008612e7a565b600082815260036020818152604092839020835160c08101855281546001600160a01b03168152600182015481840152600282015481860152928101546060840152600481015460808401526005810180548551818502810185019096528086529394919360a08601938301828280156120a157602002820191906000526020600020905b81548152602001906001019080831161208d575b5050505050815250509050919050565b6120b9612523565b6001600160a01b03811661211b5760405162461bcd60e51b8152602060048201526024808201527f46656520726563697069656e742063616e6e6f74206265207a65726f206164646044820152637265737360e01b60648201526084016108c2565b600a80546001600160a01b0319166001600160a01b0383169081179091556040519081527f594ad6ee98bfc0c73e6d15fd4e762502f359e05d26907b7fa1ff82eb5e99f6e490602001610af9565b6001600160a01b031660009081526002602052604090205490565b6000818152600460208181526040808420815160a08101835281546001600160a01b039081168252600183015416938101939093526002810154918301919091526003810154606083015290910154608082018190529091036122215760405162461bcd60e51b8152602060048201526015602482015274125b9d195b9d08191bd95cc81b9bdd08195e1a5cdd605a1b60448201526064016108c2565b61222a33612169565b815161223590612169565b146122825760405162461bcd60e51b815260206004820152601c60248201527f53656e646572206d75737420626520746865206f6e2d72616d7065720000000060448201526064016108c2565b604080820151600090815260036020522061229d8184612787565b81606001518160020160008282546122b5919061339b565b909155505060608201516003820180546000906122d39084906133ae565b9091555050505050565b606060008267ffffffffffffffff8111156122fa576122fa6130eb565b60405190808252806020026020018201604052801561237457816020015b61236160408051606080820183526000808352835160a0810185528181526020818101839052948101829052918201819052608082015290918201908152600060209091015290565b8152602001906001900390816123185790505b50905060005b8381101561246557600085858381811061239657612396613435565b6020908102929092013560008181526004808552604091829020825160a08101845281546001600160a01b0390811682526001830154169681019690965260028101548684015260038101546060808801919091529101546080860152815190810190915290935090508088888681811061241357612413613435565b9050602002013581526020018281526020016124328360000151612169565b81525084848151811061244757612447613435565b602002602001018190525050508061245e906133fa565b905061237a565b5090505b92915050565b612477612523565b6001600160a01b0381166124dc5760405162461bcd60e51b815260206004820152602660248201527f4f776e61626c653a206e6577206f776e657220697320746865207a65726f206160448201526564647265737360d01b60648201526084016108c2565b6124e581612b33565b50565b6000600160006124f785612169565b81526020808201929092526040908101600090812085825260030190925290205460ff16905092915050565b6000546001600160a01b03163314611b425760405162461bcd60e51b815260206004820181905260248201527f4f776e61626c653a2063616c6c6572206973206e6f7420746865206f776e657260448201526064016108c2565b600081815260036020908152604080832060050180548251818502810185019093528083526060949384939291908301828280156125da57602002820191906000526020600020905b8154815260200190600101908083116125c6575b50505050509050805167ffffffffffffffff8111156125fb576125fb6130eb565b604051908082528060200260200182016040528015612624578160200160208202803683370190505b50925060005b815181101561271e5760006004600084848151811061264b5761264b613435565b6020908102919091018101518252818101929092526040908101600020815160a08101835281546001600160a01b0390811682526001830154169381019390935260028101549183019190915260038101546060830152600401546080820181905260085491925042916126be9161339b565b101561270d578282815181106126d6576126d6613435565b60200260200101518583815181106126f0576126f0613435565b6020908102919091010152606081015161270a908561339b565b93505b50612717816133fa565b905061262a565b5050915091565b60005b8151811015611938576000801b82828151811061274757612747613435565b602002602001015114612777576127778383838151811061276a5761276a613435565b6020026020010151612787565b612780816133fa565b9050612728565b6000818152600460208181526040808420815160a08101835281546001600160a01b03908116808352600180850154909216958301959095526002830154938201939093526003820154606082015293015460808401529192906127ea90612169565b81526020808201929092526040908101600090812081905584815260049283905290812080546001600160a01b0319908116825560018201805490911690556002810182905560038101829055909101556128486005840183612b83565b604080820151905183907fe8a865b4bab023c399cbd1f2cdd0df2199beb6e5012a4bd2d7691cf7e4199d5a90600090a3505050565b600081600201548260030154612893919061339b565b9050806000036119385781546001600160a01b031660009081526002602052604090206128c39060010184612cab565b8154604080518581526001600160a01b0390921660208301527f8ac07cc6e38c6222dd0309c80353c1962354bacf222b825d7401cc80e93ff3cc910160405180910390a16000838152600360208190526040822080546001600160a01b03191681556001810183905560028101839055908101829055600481018290559061294e6005830182612eb9565b5050505050565b6000600954600014612a2157670de0b6b3a7640000600954836060015161297c91906133c1565b61298691906133d8565b600a5460405163a9059cbb60e01b81526001600160a01b039182166004820152602481018390529192507f0000000000000000000000000000000000000000000000000000000000000000169063a9059cbb906044016020604051808303816000875af11580156129fb573d6000803e3d6000fd5b505050506040513d601f19601f82011682018060405250810190612a1f9190613413565b505b6000818360600151612a3391906133ae565b602084015160405163a9059cbb60e01b81526001600160a01b039182166004820152602481018390529192507f0000000000000000000000000000000000000000000000000000000000000000169063a9059cbb906044016020604051808303816000875af1158015612aaa573d6000803e3d6000fd5b505050506040513d601f19601f82011682018060405250810190612ace9190613413565b50825160408085015160208087015183516001600160a01b03918216815291820186905292810186905291909216919086907ffa03438194e61c243c6bb5349f1e1dc674431b86f119b5e3b2b327bc43446bce9060600160405180910390a450505050565b600080546001600160a01b038381166001600160a01b0319831681178455604051919092169283917f8be0079c531659141344cd1fd0a4f28419497f9722a3daafe3b4186f6b6457e09190a35050565b600080612bdf84805480602002602001604051908101604052809291908181526020018280548015612bd457602002820191906000526020600020905b815481526020019060010190808311612bc0575b505050505084612d50565b9150915080612c285760405162461bcd60e51b8152602060048201526015602482015274313cba32b99999103737ba1034b71030b93930bc9760591b60448201526064016108c2565b8354600090612c39906001906133ae565b9050808314612c7e57848181548110612c5457612c54613435565b9060005260206000200154858481548110612c7157612c71613435565b6000918252602090912001555b84805480612c8e57612c8e61344b565b600190038181906000526020600020016000905590555050505050565b600080612d0784805480602002602001604051908101604052809291908181526020018280548015612cfc57602002820191906000526020600020905b815481526020019060010190808311612ce8575b505050505084612db3565b9150915080612c285760405162461bcd60e51b81526020600482015260156024820152743ab4b73a191a9b103737ba1034b71030b93930bc9760591b60448201526064016108c2565b81516000908190815b81811015612da05784868281518110612d7457612d74613435565b602002602001015103612d8e57925060019150612dac9050565b80612d98816133fa565b915050612d59565b50600019600092509250505b9250929050565b81516000908190815b81811015612da05784868281518110612dd757612dd7613435565b602002602001015103612df157925060019150612dac9050565b80612dfb816133fa565b915050612dbc565b828054828255906000526020600020908101928215612e3e579160200282015b82811115612e3e578251825591602001919060010190612e23565b50612e4a929150612ed3565b5090565b6040805160808101825260008082526020820152908101612e6d612e7a565b8152602001600081525090565b6040518060c0016040528060006001600160a01b0316815260200160008152602001600081526020016000815260200160008152602001606081525090565b50805460008255906000526020600020908101906124e591905b5b80821115612e4a5760008155600101612ed4565b80356001600160a01b0381168114612eff57600080fd5b919050565b600060208284031215612f1657600080fd5b612f1f82612ee8565b9392505050565b600060208284031215612f3857600080fd5b5035919050565b600080600060608486031215612f5457600080fd5b8335925060208401359150612f6b60408501612ee8565b90509250925092565b60008060408385031215612f8757600080fd5b50508035926020909101359150565b6020808252825182820181905260009190848201906040850190845b81811015612fce57835183529284019291840191600101612fb2565b50909695505050505050565b80516001600160a01b031682526020808201518184015260408083015190840152606080830151908401526080808301519084015260a08281015160c0918501829052805191850182905260009290810191839060e08701905b808310156130545784518252938301936001929092019190830190613034565b509695505050505050565b60006020808301818452808551808352604092508286019150828160051b87010184880160005b838110156130dd57603f19898403018552815160808151855288820151898601528782015181898701526130bc82870182612fda565b60609384015196909301959095525094870194925090860190600101613086565b509098975050505050505050565b634e487b7160e01b600052604160045260246000fd5b6000602080838503121561311457600080fd5b823567ffffffffffffffff8082111561312c57600080fd5b818501915085601f83011261314057600080fd5b813581811115613152576131526130eb565b8060051b604051601f19603f83011681018181108582111715613177576131776130eb565b60405291825284820192508381018501918883111561319557600080fd5b938501935b828510156131b35784358452938501939285019261319a565b98975050505050505050565b60208082528251828201528281015160408084015280516060840181905260009291820190839060808601905b8083101561305457835182529284019260019290920191908401906131ec565b602081526000612f1f6020830184612fda565b6000806020838503121561323257600080fd5b823567ffffffffffffffff8082111561324a57600080fd5b818501915085601f83011261325e57600080fd5b81358181111561326d57600080fd5b8660208260051b850101111561328257600080fd5b60209290920196919550909350505050565b602080825282518282018190526000919060409081850190868401855b82811015613317578151805185528681015180516001600160a01b039081168988015281890151168787015286810151606080880191909152810151608080880191909152015160a086015285015160c085015260e090930192908501906001016132b1565b5091979650505050505050565b6000806040838503121561333757600080fd5b61334083612ee8565b946020939093013593505050565b6020808252601e908201527f43616c6c6572206d757374206265207265676973746572656420757365720000604082015260600190565b634e487b7160e01b600052601160045260246000fd5b8082018082111561246957612469613385565b8181038181111561246957612469613385565b808202811582820484141761246957612469613385565b6000826133f557634e487b7160e01b600052601260045260246000fd5b500490565b60006001820161340c5761340c613385565b5060010190565b60006020828403121561342557600080fd5b81518015158114612f1f57600080fd5b634e487b7160e01b600052603260045260246000fd5b634e487b7160e01b600052603160045260246000fdfea26469706673582212208609b6b3e1c26d17b70ad65ec9b2273a0a1fa23d9b0eff755eddec1168f2350c64736f6c63430008120033",
  "linkReferences": {},
  "deployedLinkReferences": {}
}